{
  "contractName": "ContractC",
  "abi": [
    {
      "inputs": [
        {
          "internalType": "string[]",
          "name": "flagInput",
          "type": "string[]"
        }
      ],
      "stateMutability": "nonpayable",
      "type": "constructor"
    },
    {
      "inputs": [],
      "name": "codeword",
      "outputs": [
        {
          "internalType": "bytes",
          "name": "",
          "type": "bytes"
        }
      ],
      "stateMutability": "view",
      "type": "function"
    },
    {
      "inputs": [
        {
          "internalType": "bytes",
          "name": "codewordInput",
          "type": "bytes"
        }
      ],
      "name": "readTheContract",
      "outputs": [
        {
          "internalType": "string",
          "name": "",
          "type": "string"
        }
      ],
      "stateMutability": "view",
      "type": "function"
    }
  ],
  "bytecode": "0x60806040526040518060400160405280600c81526020017f70726f6f666f667374616b650000000000000000000000000000000000000000815250600190816200004a919062000458565b503480156200005857600080fd5b506040516200110e3803806200110e83398181016040528101906200007e91906200079f565b80600181518110620000955762000094620007f0565b5b6020026020010151600080600261ffff1681526020019081526020016000209081620000c2919062000884565b5080605d81518110620000da57620000d9620007f0565b5b6020026020010151600080600561ffff168152602001908152602001600020908162000107919062000884565b5080603b815181106200011f576200011e620007f0565b5b6020026020010151600080600461ffff16815260200190815260200160002090816200014c919062000884565b5080603881518110620001645762000163620007f0565b5b6020026020010151600080600361ffff168152602001908152602001600020908162000191919062000884565b5080601781518110620001a957620001a8620007f0565b5b6020026020010151600080600161ffff1681526020019081526020016000209081620001d6919062000884565b50506200096b565b600081519050919050565b7f4e487b7100000000000000000000000000000000000000000000000000000000600052604160045260246000fd5b7f4e487b7100000000000000000000000000000000000000000000000000000000600052602260045260246000fd5b600060028204905060018216806200026057607f821691505b60208210810362000276576200027562000218565b5b50919050565b60008190508160005260206000209050919050565b60006020601f8301049050919050565b600082821b905092915050565b600060088302620002e07fffffffffffffffffffffffffffffffffffffffffffffffffffffffffffffffff82620002a1565b620002ec8683620002a1565b95508019841693508086168417925050509392505050565b6000819050919050565b6000819050919050565b600062000339620003336200032d8462000304565b6200030e565b62000304565b9050919050565b6000819050919050565b620003558362000318565b6200036d620003648262000340565b848454620002ae565b825550505050565b600090565b6200038462000375565b620003918184846200034a565b505050565b5b81811015620003b957620003ad6000826200037a565b60018101905062000397565b5050565b601f8211156200040857620003d2816200027c565b620003dd8462000291565b81016020851015620003ed578190505b62000405620003fc8562000291565b83018262000396565b50505b505050565b600082821c905092915050565b60006200042d600019846008026200040d565b1980831691505092915050565b60006200044883836200041a565b9150826002028217905092915050565b6200046382620001de565b67ffffffffffffffff8111156200047f576200047e620001e9565b5b6200048b825462000247565b62000498828285620003bd565b600060209050601f831160018114620004d05760008415620004bb578287015190505b620004c785826200043a565b86555062000537565b601f198416620004e0866200027c565b60005b828110156200050a57848901518255600182019150602085019450602081019050620004e3565b868310156200052a578489015162000526601f8916826200041a565b8355505b6001600288020188555050505b505050505050565b6000604051905090565b600080fd5b600080fd5b600080fd5b6000601f19601f8301169050919050565b620005748262000558565b810181811067ffffffffffffffff82111715620005965762000595620001e9565b5b80604052505050565b6000620005ab6200053f565b9050620005b9828262000569565b919050565b600067ffffffffffffffff821115620005dc57620005db620001e9565b5b602082029050602081019050919050565b600080fd5b600080fd5b600067ffffffffffffffff821115620006155762000614620001e9565b5b620006208262000558565b9050602081019050919050565b60005b838110156200064d57808201518184015260208101905062000630565b60008484015250505050565b6000620006706200066a84620005f7565b6200059f565b9050828152602081018484840111156200068f576200068e620005f2565b5b6200069c8482856200062d565b509392505050565b600082601f830112620006bc57620006bb62000553565b5b8151620006ce84826020860162000659565b91505092915050565b6000620006ee620006e884620005be565b6200059f565b90508083825260208201905060208402830185811115620007145762000713620005ed565b5b835b818110156200076257805167ffffffffffffffff8111156200073d576200073c62000553565b5b8086016200074c8982620006a4565b8552602085019450505060208101905062000716565b5050509392505050565b600082601f83011262000784576200078362000553565b5b815162000796848260208601620006d7565b91505092915050565b600060208284031215620007b857620007b762000549565b5b600082015167ffffffffffffffff811115620007d957620007d86200054e565b5b620007e7848285016200076c565b91505092915050565b7f4e487b7100000000000000000000000000000000000000000000000000000000600052603260045260246000fd5b60008190508160005260206000209050919050565b601f8211156200087f5762000849816200081f565b620008548462000291565b8101602085101562000864578190505b6200087c620008738562000291565b83018262000396565b50505b505050565b6200088f82620001de565b67ffffffffffffffff811115620008ab57620008aa620001e9565b5b620008b7825462000247565b620008c482828562000834565b600060209050601f831160018114620008fc5760008415620008e7578287015190505b620008f385826200043a565b86555062000963565b601f1984166200090c866200081f565b60005b8281101562000936578489015182556001820191506020850194506020810190506200090f565b8683101562000956578489015162000952601f8916826200041a565b8355505b6001600288020188555050505b505050505050565b610793806200097b6000396000f3fe608060405234801561001057600080fd5b50600436106100365760003560e01c8063462056c01461003b5780636395c01d14610059575b600080fd5b610043610089565b60405161005091906102ef565b60405180910390f35b610073600480360381019061006e919061045a565b610117565b60405161008091906104f8565b60405180910390f35b6001805461009690610549565b80601f01602080910402602001604051908101604052809291908181526020018280546100c290610549565b801561010f5780601f106100e45761010080835404028352916020019161010f565b820191906000526020600020905b8154815290600101906020018083116100f257829003601f168201915b505050505081565b606081805190602001206001604051610130919061061d565b604051809103902014610178576040517f08c379a000000000000000000000000000000000000000000000000000000000815260040161016f90610680565b60405180910390fd5b610180610187565b9050919050565b6060610231600080600361ffff16815260200190815260200160002080546101ae90610549565b80601f01602080910402602001604051908101604052809291908181526020018280546101da90610549565b80156102275780601f106101fc57610100808354040283529160200191610227565b820191906000526020600020905b81548152906001019060200180831161020a57829003601f168201915b5050505050610236565b905090565b6060816040516020016102499190610728565b6040516020818303038152906040529050919050565b600081519050919050565b600082825260208201905092915050565b60005b8381101561029957808201518184015260208101905061027e565b60008484015250505050565b6000601f19601f8301169050919050565b60006102c18261025f565b6102cb818561026a565b93506102db81856020860161027b565b6102e4816102a5565b840191505092915050565b6000602082019050818103600083015261030981846102b6565b905092915050565b6000604051905090565b600080fd5b600080fd5b600080fd5b600080fd5b7f4e487b7100000000000000000000000000000000000000000000000000000000600052604160045260246000fd5b610367826102a5565b810181811067ffffffffffffffff821117156103865761038561032f565b5b80604052505050565b6000610399610311565b90506103a5828261035e565b919050565b600067ffffffffffffffff8211156103c5576103c461032f565b5b6103ce826102a5565b9050602081019050919050565b82818337600083830152505050565b60006103fd6103f8846103aa565b61038f565b9050828152602081018484840111156104195761041861032a565b5b6104248482856103db565b509392505050565b600082601f83011261044157610440610325565b5b81356104518482602086016103ea565b91505092915050565b6000602082840312156104705761046f61031b565b5b600082013567ffffffffffffffff81111561048e5761048d610320565b5b61049a8482850161042c565b91505092915050565b600081519050919050565b600082825260208201905092915050565b60006104ca826104a3565b6104d481856104ae565b93506104e481856020860161027b565b6104ed816102a5565b840191505092915050565b6000602082019050818103600083015261051281846104bf565b905092915050565b7f4e487b7100000000000000000000000000000000000000000000000000000000600052602260045260246000fd5b6000600282049050600182168061056157607f821691505b6020821081036105745761057361051a565b5b50919050565b600081905092915050565b60008190508160005260206000209050919050565b600081546105a781610549565b6105b1818661057a565b945060018216600081146105cc57600181146105e157610614565b60ff1983168652811515820286019350610614565b6105ea85610585565b60005b8381101561060c578154818901526001820191506020810190506105ed565b838801955050505b50505092915050565b6000610629828461059a565b915081905092915050565b7f496e636f727265637420636f6465776f72640000000000000000000000000000600082015250565b600061066a6012836104ae565b915061067582610634565b602082019050919050565b600060208201905081810360008301526106998161065d565b9050919050565b7f6361706374667b00000000000000000000000000000000000000000000000000815250565b600081905092915050565b60006106dc826104a3565b6106e681856106c6565b93506106f681856020860161027b565b80840191505092915050565b7f7d00000000000000000000000000000000000000000000000000000000000000815250565b6000610733826106a0565b60078201915061074382846106d1565b915061074e82610702565b6001820191508190509291505056fea26469706673582212207098230cbd5dae8d8f2a39626284c6dc191dd7092bfccf947a45e4d848cc8b1964736f6c63430008110033",
  "immutableReferences": {},
  "source": "// SPDX-License-Identifier: GPL-3.0\r\npragma solidity >=0.8.17 <0.9.0;\r\n\r\ncontract ContractC {\r\n  mapping(uint16 => string) private flags;\r\n  bytes public codeword = \"proofofstake\";\r\n\r\n  constructor(string[] memory flagInput) {\r\n    // set flags\r\n    flags[2] = flagInput[1];\r\n    flags[5] = flagInput[93];\r\n    flags[4] = flagInput[59];\r\n    flags[3] = flagInput[56];\r\n    flags[1] = flagInput[23];\r\n  }\r\n\r\n  function assembleFlag (string memory flag) internal pure returns (string memory) {\r\n    return string.concat(\"capctf{\", flag, \"}\");\r\n  }\r\n\r\n  function actuallyGetFlag () internal view returns (string memory) {\r\n    return assembleFlag(flags[3]);\r\n  }\r\n\r\n  function readTheContract (bytes memory codewordInput) external view returns (string memory) {\r\n    require(keccak256(codeword) == keccak256(codewordInput), \"Incorrect codeword\");\r\n    return actuallyGetFlag();\r\n  }\r\n}",
  "sourcePath": "C:\\Users\\cgjorsvi\\Documents\\CoP_Cybersecurity\\CTF\\Julekalender2022\\eth\\Contracts\\contracts\\ContractC.sol",
  "compiler": {
    "name": "solc",
    "version": "0.8.17+commit.8df45f5f.Emscripten.clang"
  },
  "schemaVersion": "3.4.10",
  "updatedAt": "2022-12-01T12:23:31.213Z",
  "devdoc": {
    "kind": "dev",
    "methods": {},
    "version": 1
  },
  "userdoc": {
    "kind": "user",
    "methods": {},
    "version": 1
  }
}