{
  "contractName": "Contract1",
  "abi": [
    {
      "inputs": [],
      "name": "owner",
      "outputs": [
        {
          "internalType": "address",
          "name": "",
          "type": "address"
        }
      ],
      "stateMutability": "view",
      "type": "function"
    },
    {
      "inputs": [
        {
          "internalType": "address",
          "name": "addr",
          "type": "address"
        }
      ],
      "name": "getFlag4",
      "outputs": [
        {
          "internalType": "string",
          "name": "",
          "type": "string"
        }
      ],
      "stateMutability": "view",
      "type": "function"
    }
  ],
  "bytecode": "0x6080604052336000806101000a81548173ffffffffffffffffffffffffffffffffffffffff021916908373ffffffffffffffffffffffffffffffffffffffff16021790555034801561005057600080fd5b50610450806100606000396000f3fe608060405234801561001057600080fd5b50600436106100365760003560e01c8063812259ba1461003b5780638da5cb5b1461006b575b600080fd5b610055600480360381019061005091906101a2565b610089565b604051610062919061025f565b60405180910390f35b61007361010c565b6040516100809190610290565b60405180910390f35b606060008290508073ffffffffffffffffffffffffffffffffffffffff16630217326d6040518163ffffffff1660e01b8152600401600060405180830381865afa1580156100db573d6000803e3d6000fd5b505050506040513d6000823e3d601f19601f8201168201806040525081019061010491906103d1565b915050919050565b60008054906101000a900473ffffffffffffffffffffffffffffffffffffffff1681565b6000604051905090565b600080fd5b600080fd5b600073ffffffffffffffffffffffffffffffffffffffff82169050919050565b600061016f82610144565b9050919050565b61017f81610164565b811461018a57600080fd5b50565b60008135905061019c81610176565b92915050565b6000602082840312156101b8576101b761013a565b5b60006101c68482850161018d565b91505092915050565b600081519050919050565b600082825260208201905092915050565b60005b838110156102095780820151818401526020810190506101ee565b60008484015250505050565b6000601f19601f8301169050919050565b6000610231826101cf565b61023b81856101da565b935061024b8185602086016101eb565b61025481610215565b840191505092915050565b600060208201905081810360008301526102798184610226565b905092915050565b61028a81610164565b82525050565b60006020820190506102a56000830184610281565b92915050565b600080fd5b600080fd5b7f4e487b7100000000000000000000000000000000000000000000000000000000600052604160045260246000fd5b6102ed82610215565b810181811067ffffffffffffffff8211171561030c5761030b6102b5565b5b80604052505050565b600061031f610130565b905061032b82826102e4565b919050565b600067ffffffffffffffff82111561034b5761034a6102b5565b5b61035482610215565b9050602081019050919050565b600061037461036f84610330565b610315565b9050828152602081018484840111156103905761038f6102b0565b5b61039b8482856101eb565b509392505050565b600082601f8301126103b8576103b76102ab565b5b81516103c8848260208601610361565b91505092915050565b6000602082840312156103e7576103e661013a565b5b600082015167ffffffffffffffff8111156104055761040461013f565b5b610411848285016103a3565b9150509291505056fea26469706673582212203171d1971093dc170754e6a35a54e8e671bed0f1c45c79cf9ed277d04a01a45d64736f6c63430008110033",
  "immutableReferences": {},
  "source": "// SPDX-License-Identifier: GPL-3.0\r\npragma solidity >=0.8.17 <0.9.0;\r\n\r\ninterface Contract2I{\r\n  function getFlag4 () external view returns (string memory);\r\n}\r\n\r\ncontract Contract1 {\r\n  address public owner = msg.sender;\r\n\r\n  function getFlag4 (address addr) external view returns (string memory) {\r\n    Contract2I c2 = Contract2I(addr);\r\n    return c2.getFlag4();\r\n  }\r\n\r\n  modifier ownerOnly() {\r\n    require(\r\n      msg.sender == owner,\r\n      \"This function is restricted to the contract's owner\"\r\n    );\r\n    _;\r\n  }\r\n}",
  "sourcePath": "C:\\Users\\cgjorsvi\\Documents\\CoP_Cybersecurity\\CTF\\Julekalender2022\\eth\\Contracts\\contracts\\Contract1.sol",
  "compiler": {
    "name": "solc",
    "version": "0.8.17+commit.8df45f5f.Emscripten.clang"
  },
  "schemaVersion": "3.4.10",
  "updatedAt": "2022-11-25T09:14:32.788Z",
  "devdoc": {
    "kind": "dev",
    "methods": {},
    "version": 1
  },
  "userdoc": {
    "kind": "user",
    "methods": {},
    "version": 1
  }
}