{
  "contractName": "Contract2",
  "abi": [
    {
      "inputs": [
        {
          "internalType": "string[]",
          "name": "flagInput",
          "type": "string[]"
        },
        {
          "internalType": "address",
          "name": "friendAddr",
          "type": "address"
        }
      ],
      "stateMutability": "nonpayable",
      "type": "constructor"
    },
    {
      "inputs": [],
      "name": "codeword",
      "outputs": [
        {
          "internalType": "bytes",
          "name": "",
          "type": "bytes"
        }
      ],
      "stateMutability": "view",
      "type": "function"
    },
    {
      "inputs": [],
      "name": "friend",
      "outputs": [
        {
          "internalType": "address",
          "name": "",
          "type": "address"
        }
      ],
      "stateMutability": "view",
      "type": "function"
    },
    {
      "inputs": [],
      "name": "owner",
      "outputs": [
        {
          "internalType": "address",
          "name": "",
          "type": "address"
        }
      ],
      "stateMutability": "view",
      "type": "function"
    },
    {
      "inputs": [],
      "name": "flagOnAChain",
      "outputs": [
        {
          "internalType": "string",
          "name": "",
          "type": "string"
        }
      ],
      "stateMutability": "view",
      "type": "function"
    },
    {
      "inputs": [],
      "name": "payToWinFlag",
      "outputs": [
        {
          "internalType": "string",
          "name": "",
          "type": "string"
        }
      ],
      "stateMutability": "view",
      "type": "function"
    },
    {
      "inputs": [],
      "name": "payToWin",
      "outputs": [],
      "stateMutability": "payable",
      "type": "function"
    },
    {
      "inputs": [
        {
          "internalType": "bytes",
          "name": "codewordInput",
          "type": "bytes"
        }
      ],
      "name": "readTheContract",
      "outputs": [
        {
          "internalType": "string",
          "name": "",
          "type": "string"
        }
      ],
      "stateMutability": "view",
      "type": "function"
    },
    {
      "inputs": [],
      "name": "contractLoophole",
      "outputs": [
        {
          "internalType": "string",
          "name": "",
          "type": "string"
        }
      ],
      "stateMutability": "view",
      "type": "function"
    },
    {
      "inputs": [],
      "name": "yourTurn",
      "outputs": [
        {
          "internalType": "string",
          "name": "",
          "type": "string"
        }
      ],
      "stateMutability": "view",
      "type": "function"
    }
  ],
  "bytecode": "0x6080604052336000806101000a81548173ffffffffffffffffffffffffffffffffffffffff021916908373ffffffffffffffffffffffffffffffffffffffff1602179055506040518060400160405280600c81526020017f70726f6f666f667374616b650000000000000000000000000000000000000000815250600490816200008a9190620004df565b503480156200009857600080fd5b5060405162001a7438038062001a748339818101604052810190620000be91906200088b565b80600360006101000a81548173ffffffffffffffffffffffffffffffffffffffff021916908373ffffffffffffffffffffffffffffffffffffffff16021790555081600181518110620001165762000115620008f1565b5b602002602001015160016000600261ffff168152602001908152602001600020908162000144919062000985565b5081605d815181106200015c576200015b620008f1565b5b602002602001015160016000600561ffff16815260200190815260200160002090816200018a919062000985565b5081603b81518110620001a257620001a1620008f1565b5b602002602001015160016000600461ffff1681526020019081526020016000209081620001d0919062000985565b5081603881518110620001e857620001e7620008f1565b5b602002602001015160016000600361ffff168152602001908152602001600020908162000216919062000985565b50816017815181106200022e576200022d620008f1565b5b602002602001015160016000600161ffff16815260200190815260200160002090816200025c919062000985565b50505062000a6c565b600081519050919050565b7f4e487b7100000000000000000000000000000000000000000000000000000000600052604160045260246000fd5b7f4e487b7100000000000000000000000000000000000000000000000000000000600052602260045260246000fd5b60006002820490506001821680620002e757607f821691505b602082108103620002fd57620002fc6200029f565b5b50919050565b60008190508160005260206000209050919050565b60006020601f8301049050919050565b600082821b905092915050565b600060088302620003677fffffffffffffffffffffffffffffffffffffffffffffffffffffffffffffffff8262000328565b62000373868362000328565b95508019841693508086168417925050509392505050565b6000819050919050565b6000819050919050565b6000620003c0620003ba620003b4846200038b565b62000395565b6200038b565b9050919050565b6000819050919050565b620003dc836200039f565b620003f4620003eb82620003c7565b84845462000335565b825550505050565b600090565b6200040b620003fc565b62000418818484620003d1565b505050565b5b8181101562000440576200043460008262000401565b6001810190506200041e565b5050565b601f8211156200048f57620004598162000303565b620004648462000318565b8101602085101562000474578190505b6200048c620004838562000318565b8301826200041d565b50505b505050565b600082821c905092915050565b6000620004b46000198460080262000494565b1980831691505092915050565b6000620004cf8383620004a1565b9150826002028217905092915050565b620004ea8262000265565b67ffffffffffffffff81111562000506576200050562000270565b5b620005128254620002ce565b6200051f82828562000444565b600060209050601f83116001811462000557576000841562000542578287015190505b6200054e8582620004c1565b865550620005be565b601f198416620005678662000303565b60005b8281101562000591578489015182556001820191506020850194506020810190506200056a565b86831015620005b15784890151620005ad601f891682620004a1565b8355505b6001600288020188555050505b505050505050565b6000604051905090565b600080fd5b600080fd5b600080fd5b6000601f19601f8301169050919050565b620005fb82620005df565b810181811067ffffffffffffffff821117156200061d576200061c62000270565b5b80604052505050565b600062000632620005c6565b9050620006408282620005f0565b919050565b600067ffffffffffffffff82111562000663576200066262000270565b5b602082029050602081019050919050565b600080fd5b600080fd5b600067ffffffffffffffff8211156200069c576200069b62000270565b5b620006a782620005df565b9050602081019050919050565b60005b83811015620006d4578082015181840152602081019050620006b7565b60008484015250505050565b6000620006f7620006f1846200067e565b62000626565b90508281526020810184848401111562000716576200071562000679565b5b62000723848285620006b4565b509392505050565b600082601f830112620007435762000742620005da565b5b815162000755848260208601620006e0565b91505092915050565b6000620007756200076f8462000645565b62000626565b905080838252602082019050602084028301858111156200079b576200079a62000674565b5b835b81811015620007e957805167ffffffffffffffff811115620007c457620007c3620005da565b5b808601620007d389826200072b565b855260208501945050506020810190506200079d565b5050509392505050565b600082601f8301126200080b576200080a620005da565b5b81516200081d8482602086016200075e565b91505092915050565b600073ffffffffffffffffffffffffffffffffffffffff82169050919050565b6000620008538262000826565b9050919050565b620008658162000846565b81146200087157600080fd5b50565b60008151905062000885816200085a565b92915050565b60008060408385031215620008a557620008a4620005d0565b5b600083015167ffffffffffffffff811115620008c657620008c5620005d5565b5b620008d485828601620007f3565b9250506020620008e78582860162000874565b9150509250929050565b7f4e487b7100000000000000000000000000000000000000000000000000000000600052603260045260246000fd5b60008190508160005260206000209050919050565b601f82111562000980576200094a8162000920565b620009558462000318565b8101602085101562000965578190505b6200097d620009748562000318565b8301826200041d565b50505b505050565b620009908262000265565b67ffffffffffffffff811115620009ac57620009ab62000270565b5b620009b88254620002ce565b620009c582828562000935565b600060209050601f831160018114620009fd5760008415620009e8578287015190505b620009f48582620004c1565b86555062000a64565b601f19841662000a0d8662000920565b60005b8281101562000a375784890151825560018201915060208501945060208101905062000a10565b8683101562000a57578489015162000a53601f891682620004a1565b8355505b6001600288020188555050505b505050505050565b610ff88062000a7c6000396000f3fe6080604052600436106100865760003560e01c8063462056c011610059578063462056c0146101165780636395c01d146101415780638da5cb5b1461017e578063901e4229146101a9578063c760cd1e146101d457610086565b806302b681a21461008b57806319b9c320146100955780631df12901146100c0578063312df95a146100eb575b600080fd5b6100936101ff565b005b3480156100a157600080fd5b506100aa6102a9565b6040516100b79190610968565b60405180910390f35b3480156100cc57600080fd5b506100d561036b565b6040516100e29190610968565b60405180910390f35b3480156100f757600080fd5b506101006104ab565b60405161010d9190610968565b60405180910390f35b34801561012257600080fd5b5061012b6105ee565b60405161013891906109df565b60405180910390f35b34801561014d57600080fd5b5061016860048036038101906101639190610b4a565b61067c565b6040516101759190610968565b60405180910390f35b34801561018a57600080fd5b506101936106ec565b6040516101a09190610bd4565b60405180910390f35b3480156101b557600080fd5b506101be610710565b6040516101cb9190610bd4565b60405180910390f35b3480156101e057600080fd5b506101e9610736565b6040516101f69190610968565b60405180910390f35b600066038d7ea4c6800090508034101561024e576040517f08c379a000000000000000000000000000000000000000000000000000000000815260040161024590610c3b565b60405180910390fd5b6001600260003373ffffffffffffffffffffffffffffffffffffffff1673ffffffffffffffffffffffffffffffffffffffff16815260200190815260200160002060006101000a81548160ff02191690831515021790555050565b60606102b4336107e6565b6102bd57600080fd5b61036660016000600561ffff16815260200190815260200160002080546102e390610c8a565b80601f016020809104026020016040519081016040528092919081815260200182805461030f90610c8a565b801561035c5780601f106103315761010080835404028352916020019161035c565b820191906000526020600020905b81548152906001019060200180831161033f57829003601f168201915b50505050506107ff565b905090565b6060600360009054906101000a900473ffffffffffffffffffffffffffffffffffffffff1673ffffffffffffffffffffffffffffffffffffffff163373ffffffffffffffffffffffffffffffffffffffff16146103fd576040517f08c379a00000000000000000000000000000000000000000000000000000000081526004016103f490610d2d565b60405180910390fd5b6104a660016000600461ffff168152602001908152602001600020805461042390610c8a565b80601f016020809104026020016040519081016040528092919081815260200182805461044f90610c8a565b801561049c5780601f106104715761010080835404028352916020019161049c565b820191906000526020600020905b81548152906001019060200180831161047f57829003601f168201915b50505050506107ff565b905090565b606060011515600260003373ffffffffffffffffffffffffffffffffffffffff1673ffffffffffffffffffffffffffffffffffffffff16815260200190815260200160002060009054906101000a900460ff16151514610540576040517f08c379a000000000000000000000000000000000000000000000000000000000815260040161053790610dbf565b60405180910390fd5b6105e960016000600261ffff168152602001908152602001600020805461056690610c8a565b80601f016020809104026020016040519081016040528092919081815260200182805461059290610c8a565b80156105df5780601f106105b4576101008083540402835291602001916105df565b820191906000526020600020905b8154815290600101906020018083116105c257829003601f168201915b50505050506107ff565b905090565b600480546105fb90610c8a565b80601f016020809104026020016040519081016040528092919081815260200182805461062790610c8a565b80156106745780601f1061064957610100808354040283529160200191610674565b820191906000526020600020905b81548152906001019060200180831161065757829003601f168201915b505050505081565b6060818051906020012060046040516106959190610e82565b6040518091039020146106dd576040517f08c379a00000000000000000000000000000000000000000000000000000000081526004016106d490610ee5565b60405180910390fd5b6106e5610828565b9050919050565b60008054906101000a900473ffffffffffffffffffffffffffffffffffffffff1681565b600360009054906101000a900473ffffffffffffffffffffffffffffffffffffffff1681565b60606107e160016000600161ffff168152602001908152602001600020805461075e90610c8a565b80601f016020809104026020016040519081016040528092919081815260200182805461078a90610c8a565b80156107d75780601f106107ac576101008083540402835291602001916107d7565b820191906000526020600020905b8154815290600101906020018083116107ba57829003601f168201915b50505050506107ff565b905090565b600080823b905060008163ffffffff1611915050919050565b6060816040516020016108129190610f8d565b6040516020818303038152906040529050919050565b60606108d360016000600361ffff168152602001908152602001600020805461085090610c8a565b80601f016020809104026020016040519081016040528092919081815260200182805461087c90610c8a565b80156108c95780601f1061089e576101008083540402835291602001916108c9565b820191906000526020600020905b8154815290600101906020018083116108ac57829003601f168201915b50505050506107ff565b905090565b600081519050919050565b600082825260208201905092915050565b60005b838110156109125780820151818401526020810190506108f7565b60008484015250505050565b6000601f19601f8301169050919050565b600061093a826108d8565b61094481856108e3565b93506109548185602086016108f4565b61095d8161091e565b840191505092915050565b60006020820190508181036000830152610982818461092f565b905092915050565b600081519050919050565b600082825260208201905092915050565b60006109b18261098a565b6109bb8185610995565b93506109cb8185602086016108f4565b6109d48161091e565b840191505092915050565b600060208201905081810360008301526109f981846109a6565b905092915050565b6000604051905090565b600080fd5b600080fd5b600080fd5b600080fd5b7f4e487b7100000000000000000000000000000000000000000000000000000000600052604160045260246000fd5b610a578261091e565b810181811067ffffffffffffffff82111715610a7657610a75610a1f565b5b80604052505050565b6000610a89610a01565b9050610a958282610a4e565b919050565b600067ffffffffffffffff821115610ab557610ab4610a1f565b5b610abe8261091e565b9050602081019050919050565b82818337600083830152505050565b6000610aed610ae884610a9a565b610a7f565b905082815260208101848484011115610b0957610b08610a1a565b5b610b14848285610acb565b509392505050565b600082601f830112610b3157610b30610a15565b5b8135610b41848260208601610ada565b91505092915050565b600060208284031215610b6057610b5f610a0b565b5b600082013567ffffffffffffffff811115610b7e57610b7d610a10565b5b610b8a84828501610b1c565b91505092915050565b600073ffffffffffffffffffffffffffffffffffffffff82169050919050565b6000610bbe82610b93565b9050919050565b610bce81610bb3565b82525050565b6000602082019050610be96000830184610bc5565b92915050565b7f4e6f7420656e6f75676820476f65726c6920455448207761732073656e742e00600082015250565b6000610c25601f836108e3565b9150610c3082610bef565b602082019050919050565b60006020820190508181036000830152610c5481610c18565b9050919050565b7f4e487b7100000000000000000000000000000000000000000000000000000000600052602260045260246000fd5b60006002820490506001821680610ca257607f821691505b602082108103610cb557610cb4610c5b565b5b50919050565b7f546869732066756e6374696f6e206973207265737472696374656420746f206160008201527f20667269656e64206f662074686520636f6e7472616374000000000000000000602082015250565b6000610d176037836108e3565b9150610d2282610cbb565b604082019050919050565b60006020820190508181036000830152610d4681610d0a565b9050919050565b7f53656e64657220686173206e6f74207061696420746f2076696577207468652060008201527f666c61672e000000000000000000000000000000000000000000000000000000602082015250565b6000610da96025836108e3565b9150610db482610d4d565b604082019050919050565b60006020820190508181036000830152610dd881610d9c565b9050919050565b600081905092915050565b60008190508160005260206000209050919050565b60008154610e0c81610c8a565b610e168186610ddf565b94506001821660008114610e315760018114610e4657610e79565b60ff1983168652811515820286019350610e79565b610e4f85610dea565b60005b83811015610e7157815481890152600182019150602081019050610e52565b838801955050505b50505092915050565b6000610e8e8284610dff565b915081905092915050565b7f496e636f727265637420636f6465776f72640000000000000000000000000000600082015250565b6000610ecf6012836108e3565b9150610eda82610e99565b602082019050919050565b60006020820190508181036000830152610efe81610ec2565b9050919050565b7f6361706374667b00000000000000000000000000000000000000000000000000815250565b600081905092915050565b6000610f41826108d8565b610f4b8185610f2b565b9350610f5b8185602086016108f4565b80840191505092915050565b7f7d00000000000000000000000000000000000000000000000000000000000000815250565b6000610f9882610f05565b600782019150610fa88284610f36565b9150610fb382610f67565b6001820191508190509291505056fea26469706673582212208b437506d69ead0e80e3a6e9ede8fe8a663a397499412242c3d8e9a841950ddf64736f6c63430008110033",
  "immutableReferences": {},
  "source": "// SPDX-License-Identifier: GPL-3.0\r\npragma solidity >=0.8.17 <0.9.0;\r\n\r\ncontract Contract2 {\r\n  address public owner = msg.sender;\r\n  mapping(uint16 => string) private flags;\r\n  mapping(address => bool) private paid;\r\n  address public friend;\r\n  bytes public codeword = \"proofofstake\";\r\n\r\n  // this function runs when the contract is deployed\r\n  constructor(string[] memory flagInput, address friendAddr) {\r\n    friend = friendAddr;\r\n    // set flags\r\n    flags[2] = flagInput[1];\r\n    flags[5] = flagInput[93];\r\n    flags[4] = flagInput[59];\r\n    flags[3] = flagInput[56];\r\n    flags[1] = flagInput[23];\r\n  }\r\n\r\n  function assembleFlag (string memory flag) internal pure returns (string memory) {\r\n    return string.concat(\"capctf{\", flag, \"}\");\r\n  }\r\n\r\n  function flagOnAChain () external view returns (string memory) {\r\n    return assembleFlag(flags[1]);\r\n  }\r\n\r\n  function payToWinFlag () public view returns (string memory) {\r\n    require(paid[msg.sender] == true, \"Sender has not paid to view the flag.\");\r\n    return assembleFlag(flags[2]);\r\n  }\r\n\r\n  function payToWin () external payable {\r\n    uint cost = 1e15;\r\n    require(msg.value >= cost, \"Not enough Goerli ETH was sent.\");\r\n    paid[msg.sender] = true;\r\n  }\r\n\r\n  function actuallyGetFlag () internal view returns (string memory) {\r\n    return assembleFlag(flags[3]);\r\n  }\r\n\r\n  function readTheContract (bytes memory codewordInput) external view returns (string memory) {\r\n    require(keccak256(codeword) == keccak256(codewordInput), \"Incorrect codeword\");\r\n    return actuallyGetFlag();\r\n  }\r\n\r\n  function contractLoophole () external view isFriend returns (string memory) {\r\n    return assembleFlag(flags[4]);\r\n  }\r\n\r\n  function isContract (address _addr) internal view returns (bool) {\r\n    uint32 size;\r\n    assembly {\r\n      size := extcodesize(_addr)\r\n    }\r\n    return (size > 0);\r\n  }\r\n\r\n  function yourTurn () external view returns (string memory) {\r\n    require(isContract(msg.sender));\r\n    return assembleFlag(flags[5]);\r\n  }\r\n  \r\n  modifier isFriend() {\r\n    require(\r\n      msg.sender == friend,\r\n      \"This function is restricted to a friend of the contract\"\r\n    );\r\n    _;\r\n  }\r\n\r\n  modifier ownerOnly() {\r\n    require(\r\n      msg.sender == owner,\r\n      \"This function is restricted to the contract's owner\"\r\n    );\r\n    _;\r\n  }\r\n}",
  "sourcePath": "C:\\Users\\cgjorsvi\\Documents\\CoP_Cybersecurity\\CTF\\Julekalender2022\\eth\\Contracts\\contracts\\Contract2.sol",
  "compiler": {
    "name": "solc",
    "version": "0.8.17+commit.8df45f5f.Emscripten.clang"
  },
  "schemaVersion": "3.4.10",
  "updatedAt": "2022-12-05T14:50:33.323Z",
  "devdoc": {
    "kind": "dev",
    "methods": {},
    "version": 1
  },
  "userdoc": {
    "kind": "user",
    "methods": {},
    "version": 1
  }
}