{
  "contractName": "Contract1",
  "abi": [
    {
      "inputs": [
        {
          "internalType": "string",
          "name": "flagInput",
          "type": "string"
        }
      ],
      "stateMutability": "nonpayable",
      "type": "constructor"
    },
    {
      "inputs": [],
      "name": "flag",
      "outputs": [
        {
          "internalType": "string",
          "name": "",
          "type": "string"
        }
      ],
      "stateMutability": "view",
      "type": "function"
    },
    {
      "inputs": [],
      "name": "owner",
      "outputs": [
        {
          "internalType": "address",
          "name": "",
          "type": "address"
        }
      ],
      "stateMutability": "view",
      "type": "function"
    }
  ],
  "bytecode": "0x6080604052336000806101000a81548173ffffffffffffffffffffffffffffffffffffffff021916908373ffffffffffffffffffffffffffffffffffffffff1602179055503480156200005157600080fd5b506040516200088338038062000883833981810160405281019062000077919062000223565b8060019081620000889190620004bf565b5050620005a6565b6000604051905090565b600080fd5b600080fd5b600080fd5b600080fd5b6000601f19601f8301169050919050565b7f4e487b7100000000000000000000000000000000000000000000000000000000600052604160045260246000fd5b620000f982620000ae565b810181811067ffffffffffffffff821117156200011b576200011a620000bf565b5b80604052505050565b60006200013062000090565b90506200013e8282620000ee565b919050565b600067ffffffffffffffff821115620001615762000160620000bf565b5b6200016c82620000ae565b9050602081019050919050565b60005b83811015620001995780820151818401526020810190506200017c565b60008484015250505050565b6000620001bc620001b68462000143565b62000124565b905082815260208101848484011115620001db57620001da620000a9565b5b620001e884828562000179565b509392505050565b600082601f830112620002085762000207620000a4565b5b81516200021a848260208601620001a5565b91505092915050565b6000602082840312156200023c576200023b6200009a565b5b600082015167ffffffffffffffff8111156200025d576200025c6200009f565b5b6200026b84828501620001f0565b91505092915050565b600081519050919050565b7f4e487b7100000000000000000000000000000000000000000000000000000000600052602260045260246000fd5b60006002820490506001821680620002c757607f821691505b602082108103620002dd57620002dc6200027f565b5b50919050565b60008190508160005260206000209050919050565b60006020601f8301049050919050565b600082821b905092915050565b600060088302620003477fffffffffffffffffffffffffffffffffffffffffffffffffffffffffffffffff8262000308565b62000353868362000308565b95508019841693508086168417925050509392505050565b6000819050919050565b6000819050919050565b6000620003a06200039a62000394846200036b565b62000375565b6200036b565b9050919050565b6000819050919050565b620003bc836200037f565b620003d4620003cb82620003a7565b84845462000315565b825550505050565b600090565b620003eb620003dc565b620003f8818484620003b1565b505050565b5b81811015620004205762000414600082620003e1565b600181019050620003fe565b5050565b601f8211156200046f576200043981620002e3565b6200044484620002f8565b8101602085101562000454578190505b6200046c6200046385620002f8565b830182620003fd565b50505b505050565b600082821c905092915050565b6000620004946000198460080262000474565b1980831691505092915050565b6000620004af838362000481565b9150826002028217905092915050565b620004ca8262000274565b67ffffffffffffffff811115620004e657620004e5620000bf565b5b620004f28254620002ae565b620004ff82828562000424565b600060209050601f83116001811462000537576000841562000522578287015190505b6200052e8582620004a1565b8655506200059e565b601f1984166200054786620002e3565b60005b8281101562000571578489015182556001820191506020850194506020810190506200054a565b868310156200059157848901516200058d601f89168262000481565b8355505b6001600288020188555050505b505050505050565b6102cd80620005b66000396000f3fe608060405234801561001057600080fd5b50600436106100365760003560e01c8063890eba681461003b5780638da5cb5b14610059575b600080fd5b610043610077565b60405161005091906101b9565b60405180910390f35b610061610105565b60405161006e919061021c565b60405180910390f35b6001805461008490610266565b80601f01602080910402602001604051908101604052809291908181526020018280546100b090610266565b80156100fd5780601f106100d2576101008083540402835291602001916100fd565b820191906000526020600020905b8154815290600101906020018083116100e057829003601f168201915b505050505081565b60008054906101000a900473ffffffffffffffffffffffffffffffffffffffff1681565b600081519050919050565b600082825260208201905092915050565b60005b83811015610163578082015181840152602081019050610148565b60008484015250505050565b6000601f19601f8301169050919050565b600061018b82610129565b6101958185610134565b93506101a5818560208601610145565b6101ae8161016f565b840191505092915050565b600060208201905081810360008301526101d38184610180565b905092915050565b600073ffffffffffffffffffffffffffffffffffffffff82169050919050565b6000610206826101db565b9050919050565b610216816101fb565b82525050565b6000602082019050610231600083018461020d565b92915050565b7f4e487b7100000000000000000000000000000000000000000000000000000000600052602260045260246000fd5b6000600282049050600182168061027e57607f821691505b60208210810361029157610290610237565b5b5091905056fea2646970667358221220c72553815ef9928afced3f90be328ce3e0a9b1125b2bc070bc7dd1ea1830a87464736f6c63430008110033",
  "immutableReferences": {},
  "source": "// SPDX-License-Identifier: GPL-3.0\r\npragma solidity >=0.8.17 <0.9.0;\r\n\r\ncontract Contract1 {\r\n  address public owner = msg.sender;\r\n  string public flag;\r\n\r\n  // this function runs when the contract is deployed\r\n  constructor(string memory flagInput) {\r\n    // set flag\r\n    flag = flagInput;\r\n  }\r\n\r\n\r\n  modifier ownerOnly() {\r\n    require(\r\n      msg.sender == owner,\r\n      \"This function is restricted to the contract's owner\"\r\n    );\r\n    _;\r\n  }\r\n}",
  "sourcePath": "C:\\Users\\cgjorsvi\\Documents\\CoP_Cybersecurity\\CTF\\Julekalender2022\\eth\\Contracts\\contracts\\Contract1.sol",
  "compiler": {
    "name": "solc",
    "version": "0.8.17+commit.8df45f5f.Emscripten.clang"
  },
  "schemaVersion": "3.4.10",
  "updatedAt": "2022-11-23T09:40:34.780Z",
  "devdoc": {
    "kind": "dev",
    "methods": {},
    "version": 1
  },
  "userdoc": {
    "kind": "user",
    "methods": {},
    "version": 1
  }
}