{
  "contractName": "ContractE2",
  "abi": [
    {
      "inputs": [
        {
          "internalType": "address",
          "name": "addr",
          "type": "address"
        }
      ],
      "name": "callContract",
      "outputs": [
        {
          "internalType": "string",
          "name": "",
          "type": "string"
        }
      ],
      "stateMutability": "view",
      "type": "function"
    }
  ],
  "bytecode": "0x608060405234801561001057600080fd5b506103d9806100206000396000f3fe608060405234801561001057600080fd5b506004361061002b5760003560e01c806368874f1f14610030575b600080fd5b61004a60048036038101906100459190610155565b610060565b6040516100579190610212565b60405180910390f35b606060008290508073ffffffffffffffffffffffffffffffffffffffff166319b9c3206040518163ffffffff1660e01b8152600401600060405180830381865afa1580156100b2573d6000803e3d6000fd5b505050506040513d6000823e3d601f19601f820116820180604052508101906100db919061035a565b915050919050565b6000604051905090565b600080fd5b600080fd5b600073ffffffffffffffffffffffffffffffffffffffff82169050919050565b6000610122826100f7565b9050919050565b61013281610117565b811461013d57600080fd5b50565b60008135905061014f81610129565b92915050565b60006020828403121561016b5761016a6100ed565b5b600061017984828501610140565b91505092915050565b600081519050919050565b600082825260208201905092915050565b60005b838110156101bc5780820151818401526020810190506101a1565b60008484015250505050565b6000601f19601f8301169050919050565b60006101e482610182565b6101ee818561018d565b93506101fe81856020860161019e565b610207816101c8565b840191505092915050565b6000602082019050818103600083015261022c81846101d9565b905092915050565b600080fd5b600080fd5b7f4e487b7100000000000000000000000000000000000000000000000000000000600052604160045260246000fd5b610276826101c8565b810181811067ffffffffffffffff821117156102955761029461023e565b5b80604052505050565b60006102a86100e3565b90506102b4828261026d565b919050565b600067ffffffffffffffff8211156102d4576102d361023e565b5b6102dd826101c8565b9050602081019050919050565b60006102fd6102f8846102b9565b61029e565b90508281526020810184848401111561031957610318610239565b5b61032484828561019e565b509392505050565b600082601f83011261034157610340610234565b5b81516103518482602086016102ea565b91505092915050565b6000602082840312156103705761036f6100ed565b5b600082015167ffffffffffffffff81111561038e5761038d6100f2565b5b61039a8482850161032c565b9150509291505056fea264697066735822122088938405331b4ac5e7a4b240f9a50901c4b645b85b868eab32ca94f91920c13564736f6c63430008110033",
  "immutableReferences": {},
  "source": "// SPDX-License-Identifier: GPL-3.0\r\npragma solidity >=0.8.17 <0.9.0;\r\n\r\ninterface ContractEInterface{\r\n  function yourTurn () external view returns (string memory);\r\n}\r\n\r\ncontract ContractE2 {\r\n  function callContract (address addr) external view returns (string memory) {\r\n    ContractEInterface e2 = ContractEInterface(addr);\r\n    return e2.yourTurn();\r\n  }\r\n}",
  "sourcePath": "C:\\Users\\cgjorsvi\\Documents\\CoP_Cybersecurity\\CTF\\Julekalender2022\\eth\\Contracts\\contracts\\ContractE2.sol",
  "compiler": {
    "name": "solc",
    "version": "0.8.17+commit.8df45f5f.Emscripten.clang"
  },
  "schemaVersion": "3.4.10",
  "updatedAt": "2022-12-14T08:01:55.357Z",
  "devdoc": {
    "kind": "dev",
    "methods": {},
    "version": 1
  },
  "userdoc": {
    "kind": "user",
    "methods": {},
    "version": 1
  }
}