{
  "contractName": "ContractD1",
  "abi": [
    {
      "inputs": [
        {
          "internalType": "string[]",
          "name": "flagInput",
          "type": "string[]"
        },
        {
          "internalType": "address",
          "name": "friendAddr",
          "type": "address"
        }
      ],
      "stateMutability": "nonpayable",
      "type": "constructor"
    },
    {
      "inputs": [],
      "name": "friend",
      "outputs": [
        {
          "internalType": "address",
          "name": "",
          "type": "address"
        }
      ],
      "stateMutability": "view",
      "type": "function"
    },
    {
      "inputs": [],
      "name": "contractLoophole",
      "outputs": [
        {
          "internalType": "string",
          "name": "",
          "type": "string"
        }
      ],
      "stateMutability": "view",
      "type": "function"
    }
  ],
  "bytecode": "0x60806040523480156200001157600080fd5b5060405162000d9c38038062000d9c8339818101604052810190620000379190620004cd565b80600160006101000a81548173ffffffffffffffffffffffffffffffffffffffff021916908373ffffffffffffffffffffffffffffffffffffffff160217905550816001815181106200008f576200008e62000533565b5b6020026020010151600080600261ffff1681526020019081526020016000209081620000bc9190620007ad565b5081605d81518110620000d457620000d362000533565b5b6020026020010151600080600561ffff1681526020019081526020016000209081620001019190620007ad565b5081603b8151811062000119576200011862000533565b5b6020026020010151600080600461ffff1681526020019081526020016000209081620001469190620007ad565b50816038815181106200015e576200015d62000533565b5b6020026020010151600080600361ffff16815260200190815260200160002090816200018b9190620007ad565b5081601781518110620001a357620001a262000533565b5b6020026020010151600080600161ffff1681526020019081526020016000209081620001d09190620007ad565b50505062000894565b6000604051905090565b600080fd5b600080fd5b600080fd5b6000601f19601f8301169050919050565b7f4e487b7100000000000000000000000000000000000000000000000000000000600052604160045260246000fd5b6200023d82620001f2565b810181811067ffffffffffffffff821117156200025f576200025e62000203565b5b80604052505050565b600062000274620001d9565b905062000282828262000232565b919050565b600067ffffffffffffffff821115620002a557620002a462000203565b5b602082029050602081019050919050565b600080fd5b600080fd5b600067ffffffffffffffff821115620002de57620002dd62000203565b5b620002e982620001f2565b9050602081019050919050565b60005b8381101562000316578082015181840152602081019050620002f9565b60008484015250505050565b6000620003396200033384620002c0565b62000268565b905082815260208101848484011115620003585762000357620002bb565b5b62000365848285620002f6565b509392505050565b600082601f830112620003855762000384620001ed565b5b81516200039784826020860162000322565b91505092915050565b6000620003b7620003b18462000287565b62000268565b90508083825260208201905060208402830185811115620003dd57620003dc620002b6565b5b835b818110156200042b57805167ffffffffffffffff811115620004065762000405620001ed565b5b8086016200041589826200036d565b85526020850194505050602081019050620003df565b5050509392505050565b600082601f8301126200044d576200044c620001ed565b5b81516200045f848260208601620003a0565b91505092915050565b600073ffffffffffffffffffffffffffffffffffffffff82169050919050565b6000620004958262000468565b9050919050565b620004a78162000488565b8114620004b357600080fd5b50565b600081519050620004c7816200049c565b92915050565b60008060408385031215620004e757620004e6620001e3565b5b600083015167ffffffffffffffff811115620005085762000507620001e8565b5b620005168582860162000435565b92505060206200052985828601620004b6565b9150509250929050565b7f4e487b7100000000000000000000000000000000000000000000000000000000600052603260045260246000fd5b600081519050919050565b7f4e487b7100000000000000000000000000000000000000000000000000000000600052602260045260246000fd5b60006002820490506001821680620005b557607f821691505b602082108103620005cb57620005ca6200056d565b5b50919050565b60008190508160005260206000209050919050565b60006020601f8301049050919050565b600082821b905092915050565b600060088302620006357fffffffffffffffffffffffffffffffffffffffffffffffffffffffffffffffff82620005f6565b620006418683620005f6565b95508019841693508086168417925050509392505050565b6000819050919050565b6000819050919050565b60006200068e62000688620006828462000659565b62000663565b62000659565b9050919050565b6000819050919050565b620006aa836200066d565b620006c2620006b98262000695565b84845462000603565b825550505050565b600090565b620006d9620006ca565b620006e68184846200069f565b505050565b5b818110156200070e5762000702600082620006cf565b600181019050620006ec565b5050565b601f8211156200075d576200072781620005d1565b6200073284620005e6565b8101602085101562000742578190505b6200075a6200075185620005e6565b830182620006eb565b50505b505050565b600082821c905092915050565b6000620007826000198460080262000762565b1980831691505092915050565b60006200079d83836200076f565b9150826002028217905092915050565b620007b88262000562565b67ffffffffffffffff811115620007d457620007d362000203565b5b620007e082546200059c565b620007ed82828562000712565b600060209050601f83116001811462000825576000841562000810578287015190505b6200081c85826200078f565b8655506200088c565b601f1984166200083586620005d1565b60005b828110156200085f5784890151825560018201915060208501945060208101905062000838565b868310156200087f57848901516200087b601f8916826200076f565b8355505b6001600288020188555050505b505050505050565b6104f880620008a46000396000f3fe608060405234801561001057600080fd5b50600436106100365760003560e01c80631df129011461003b578063901e422914610059575b600080fd5b610043610077565b6040516100509190610295565b60405180910390f35b6100616101b6565b60405161006e91906102f8565b60405180910390f35b6060600160009054906101000a900473ffffffffffffffffffffffffffffffffffffffff1673ffffffffffffffffffffffffffffffffffffffff163373ffffffffffffffffffffffffffffffffffffffff1614610109576040517f08c379a000000000000000000000000000000000000000000000000000000000815260040161010090610385565b60405180910390fd5b6101b1600080600461ffff168152602001908152602001600020805461012e906103d4565b80601f016020809104026020016040519081016040528092919081815260200182805461015a906103d4565b80156101a75780601f1061017c576101008083540402835291602001916101a7565b820191906000526020600020905b81548152906001019060200180831161018a57829003601f168201915b50505050506101dc565b905090565b600160009054906101000a900473ffffffffffffffffffffffffffffffffffffffff1681565b6060816040516020016101ef919061048d565b6040516020818303038152906040529050919050565b600081519050919050565b600082825260208201905092915050565b60005b8381101561023f578082015181840152602081019050610224565b60008484015250505050565b6000601f19601f8301169050919050565b600061026782610205565b6102718185610210565b9350610281818560208601610221565b61028a8161024b565b840191505092915050565b600060208201905081810360008301526102af818461025c565b905092915050565b600073ffffffffffffffffffffffffffffffffffffffff82169050919050565b60006102e2826102b7565b9050919050565b6102f2816102d7565b82525050565b600060208201905061030d60008301846102e9565b92915050565b7f546869732066756e6374696f6e206973207265737472696374656420746f206160008201527f20667269656e64206f662074686520636f6e7472616374000000000000000000602082015250565b600061036f603783610210565b915061037a82610313565b604082019050919050565b6000602082019050818103600083015261039e81610362565b9050919050565b7f4e487b7100000000000000000000000000000000000000000000000000000000600052602260045260246000fd5b600060028204905060018216806103ec57607f821691505b6020821081036103ff576103fe6103a5565b5b50919050565b7f6361706374667b00000000000000000000000000000000000000000000000000815250565b600081905092915050565b600061044182610205565b61044b818561042b565b935061045b818560208601610221565b80840191505092915050565b7f7d00000000000000000000000000000000000000000000000000000000000000815250565b600061049882610405565b6007820191506104a88284610436565b91506104b382610467565b6001820191508190509291505056fea2646970667358221220bd40b7fd2800fd27790d194b55afc6d301dc961602f9df22725b1cd6beb1348b64736f6c63430008110033",
  "immutableReferences": {},
  "source": "// SPDX-License-Identifier: GPL-3.0\r\npragma solidity >=0.8.17 <0.9.0;\r\n\r\ncontract ContractD1 {\r\n  mapping(uint16 => string) private flags;\r\n  address public friend;\r\n\r\n  constructor(string[] memory flagInput, address friendAddr) {\r\n    friend = friendAddr;\r\n    // set flags\r\n    flags[2] = flagInput[1];\r\n    flags[5] = flagInput[93];\r\n    flags[4] = flagInput[59];\r\n    flags[3] = flagInput[56];\r\n    flags[1] = flagInput[23];\r\n  }\r\n\r\n  function assembleFlag (string memory flag) internal pure returns (string memory) {\r\n    return string.concat(\"capctf{\", flag, \"}\");\r\n  }\r\n\r\n  function contractLoophole () external view isFriend returns (string memory) {\r\n    return assembleFlag(flags[4]);\r\n  }\r\n  \r\n  modifier isFriend() {\r\n    require(\r\n      msg.sender == friend,\r\n      \"This function is restricted to a friend of the contract\"\r\n    );\r\n    _;\r\n  }\r\n}",
  "sourcePath": "C:\\Users\\cgjorsvi\\Documents\\CoP_Cybersecurity\\CTF\\Julekalender2022\\eth\\Contracts\\contracts\\ContractD1.sol",
  "compiler": {
    "name": "solc",
    "version": "0.8.17+commit.8df45f5f.Emscripten.clang"
  },
  "schemaVersion": "3.4.10",
  "updatedAt": "2022-12-05T14:50:33.648Z",
  "devdoc": {
    "kind": "dev",
    "methods": {},
    "version": 1
  },
  "userdoc": {
    "kind": "user",
    "methods": {},
    "version": 1
  }
}