{
  "contractName": "ContractF",
  "abi": [
    {
      "inputs": [
        {
          "internalType": "string[]",
          "name": "flagInput",
          "type": "string[]"
        }
      ],
      "stateMutability": "nonpayable",
      "type": "constructor"
    },
    {
      "inputs": [
        {
          "internalType": "address",
          "name": "",
          "type": "address"
        }
      ],
      "name": "balance",
      "outputs": [
        {
          "internalType": "uint64",
          "name": "",
          "type": "uint64"
        }
      ],
      "stateMutability": "view",
      "type": "function"
    },
    {
      "inputs": [
        {
          "internalType": "address",
          "name": "customerAddr",
          "type": "address"
        }
      ],
      "name": "register",
      "outputs": [],
      "stateMutability": "nonpayable",
      "type": "function"
    },
    {
      "inputs": [
        {
          "internalType": "address",
          "name": "customerAddr",
          "type": "address"
        },
        {
          "internalType": "uint64",
          "name": "amount",
          "type": "uint64"
        }
      ],
      "name": "withdraw",
      "outputs": [],
      "stateMutability": "nonpayable",
      "type": "function"
    },
    {
      "inputs": [
        {
          "internalType": "address",
          "name": "customerAddr",
          "type": "address"
        }
      ],
      "name": "checkBalance",
      "outputs": [
        {
          "internalType": "string",
          "name": "",
          "type": "string"
        }
      ],
      "stateMutability": "view",
      "type": "function"
    }
  ],
  "bytecode": "0x60806040523480156200001157600080fd5b5060405162000fda38038062000fda83398181016040528101906200003791906200038a565b806001815181106200004557fe5b6020026020010151600080600261ffff168152602001908152602001600020908051906020019062000079929190620001d0565b5080605d815181106200008857fe5b6020026020010151600080600561ffff1681526020019081526020016000209080519060200190620000bc929190620001d0565b5080603b81518110620000cb57fe5b6020026020010151600080600461ffff1681526020019081526020016000209080519060200190620000ff929190620001d0565b50806038815181106200010e57fe5b6020026020010151600080600361ffff168152602001908152602001600020908051906020019062000142929190620001d0565b50806006815181106200015157fe5b6020026020010151600080600661ffff168152602001908152602001600020908051906020019062000185929190620001d0565b50806017815181106200019457fe5b6020026020010151600080600161ffff1681526020019081526020016000209080519060200190620001c8929190620001d0565b50506200049d565b828054600181600116156101000203166002900490600052602060002090601f01602090048101928262000208576000855562000254565b82601f106200022357805160ff191683800117855562000254565b8280016001018555821562000254579182015b828111156200025357825182559160200191906001019062000236565b5b50905062000263919062000267565b5090565b5b808211156200028257600081600090555060010162000268565b5090565b60006200029d620002978462000403565b620003cf565b9050808382526020820190508260005b85811015620002e15781518501620002c688826200035d565b845260208401935060208301925050600181019050620002ad565b5050509392505050565b600062000302620002fc8462000432565b620003cf565b9050828152602081018484840111156200031b57600080fd5b6200032884828562000465565b509392505050565b600082601f8301126200034257600080fd5b81516200035484826020860162000286565b91505092915050565b600082601f8301126200036f57600080fd5b815162000381848260208601620002eb565b91505092915050565b6000602082840312156200039d57600080fd5b600082015167ffffffffffffffff811115620003b857600080fd5b620003c68482850162000330565b91505092915050565b6000604051905081810181811067ffffffffffffffff82111715620003f957620003f86200049b565b5b8060405250919050565b600067ffffffffffffffff8211156200042157620004206200049b565b5b602082029050602081019050919050565b600067ffffffffffffffff82111562000450576200044f6200049b565b5b601f19601f8301169050602081019050919050565b60005b838110156200048557808201518184015260208101905062000468565b8381111562000495576000848401525b50505050565bfe5b610b2d80620004ad6000396000f3fe608060405234801561001057600080fd5b506004361061004c5760003560e01c80634420e486146100515780635f5152261461006d578063d6dad0601461009d578063e3d670d7146100b9575b600080fd5b61006b6004803603810190610066919061070a565b6100e9565b005b6100876004803603810190610082919061070a565b6101f9565b604051610094919061097b565b60405180910390f35b6100b760048036038101906100b29190610733565b610395565b005b6100d360048036038101906100ce919061070a565b610549565b6040516100e091906109fd565b60405180910390f35b6000600160008373ffffffffffffffffffffffffffffffffffffffff1673ffffffffffffffffffffffffffffffffffffffff16815260200190815260200160002060009054906101000a900467ffffffffffffffff1667ffffffffffffffff1614610189576040517f08c379a0000000000000000000000000000000000000000000000000000000008152600401610180906109dd565b60405180910390fd5b662386f26fc10000600160008373ffffffffffffffffffffffffffffffffffffffff1673ffffffffffffffffffffffffffffffffffffffff16815260200190815260200160002060006101000a81548167ffffffffffffffff021916908367ffffffffffffffff16021790555050565b606067f9ccd8a1c5080000600160008473ffffffffffffffffffffffffffffffffffffffff1673ffffffffffffffffffffffffffffffffffffffff16815260200190815260200160002060009054906101000a900467ffffffffffffffff1667ffffffffffffffff16111561032757610320600080600661ffff1681526020019081526020016000208054600181600116156101000203166002900480601f0160208091040260200160405190810160405280929190818152602001828054600181600116156101000203166002900480156103165780601f106102eb57610100808354040283529160200191610316565b820191906000526020600020905b8154815290600101906020018083116102f957829003601f168201915b5050505050610570565b9050610390565b61038d600160008473ffffffffffffffffffffffffffffffffffffffff1673ffffffffffffffffffffffffffffffffffffffff16815260200190815260200160002060009054906101000a900467ffffffffffffffff1667ffffffffffffffff16610599565b90505b919050565b6000600160008473ffffffffffffffffffffffffffffffffffffffff1673ffffffffffffffffffffffffffffffffffffffff16815260200190815260200160002060009054906101000a900467ffffffffffffffff1667ffffffffffffffff161415610436576040517f08c379a000000000000000000000000000000000000000000000000000000000815260040161042d9061099d565b60405180910390fd5b600081600160008573ffffffffffffffffffffffffffffffffffffffff1673ffffffffffffffffffffffffffffffffffffffff16815260200190815260200160002060009054906101000a900467ffffffffffffffff1603905060008167ffffffffffffffff1610156104de576040517f08c379a00000000000000000000000000000000000000000000000000000000081526004016104d5906109bd565b60405180910390fd5b80600160008573ffffffffffffffffffffffffffffffffffffffff1673ffffffffffffffffffffffffffffffffffffffff16815260200190815260200160002060006101000a81548167ffffffffffffffff021916908367ffffffffffffffff160217905550505050565b60016020528060005260406000206000915054906101000a900467ffffffffffffffff1681565b606081604051602001610583919061094e565b6040516020818303038152906040529050919050565b606060008214156105e1576040518060400160405280600181526020017f300000000000000000000000000000000000000000000000000000000000000081525090506106db565b600082905060005b6000821461060b578080600101915050600a828161060357fe5b0491506105e9565b60008167ffffffffffffffff8111801561062457600080fd5b506040519080825280601f01601f1916602001820160405280156106575781602001600182028036833780820191505090505b50905060006001830390508593505b600084146106d357600a848161067857fe5b0660300160f81b8282806001900393508151811061069257fe5b60200101907effffffffffffffffffffffffffffffffffffffffffffffffffffffffffffff1916908160001a905350600a84816106cb57fe5b049350610666565b819450505050505b919050565b6000813590506106ef81610ac9565b92915050565b60008135905061070481610ae0565b92915050565b60006020828403121561071c57600080fd5b600061072a848285016106e0565b91505092915050565b6000806040838503121561074657600080fd5b6000610754858286016106e0565b9250506020610765858286016106f5565b9150509250929050565b600061077a82610a18565b6107848185610a23565b9350610794818560208601610a85565b61079d81610ab8565b840191505092915050565b60006107b382610a18565b6107bd8185610a34565b93506107cd818560208601610a85565b80840191505092915050565b60006107e6601d83610a23565b91507f437573746f6d6572206d7573742072656769737465722066697273742e0000006000830152602082019050919050565b6000610826602183610a23565b91507f43616e6e6f74207769746864726177206d6f7265207468616e2062616c616e6360008301527f65000000000000000000000000000000000000000000000000000000000000006020830152604082019050919050565b600061088c601f83610a23565b91507f437573746f6d657220697320616c726561647920726567697374657265642e006000830152602082019050919050565b60006108cc600783610a34565b91507f6361706374667b000000000000000000000000000000000000000000000000006000830152600782019050919050565b600061090c600183610a34565b91507f7d000000000000000000000000000000000000000000000000000000000000006000830152600182019050919050565b61094881610a71565b82525050565b6000610959826108bf565b915061096582846107a8565b9150610970826108ff565b915081905092915050565b60006020820190508181036000830152610995818461076f565b905092915050565b600060208201905081810360008301526109b6816107d9565b9050919050565b600060208201905081810360008301526109d681610819565b9050919050565b600060208201905081810360008301526109f68161087f565b9050919050565b6000602082019050610a12600083018461093f565b92915050565b600081519050919050565b600082825260208201905092915050565b600081905092915050565b6000610a4a82610a51565b9050919050565b600073ffffffffffffffffffffffffffffffffffffffff82169050919050565b600067ffffffffffffffff82169050919050565b60005b83811015610aa3578082015181840152602081019050610a88565b83811115610ab2576000848401525b50505050565b6000601f19601f8301169050919050565b610ad281610a3f565b8114610add57600080fd5b50565b610ae981610a71565b8114610af457600080fd5b5056fea2646970667358221220dcfe91b84feb8fc6885b1568c6df3b531bb2795adb3d8857706cad2bfb07eaf864736f6c63430007060033",
  "immutableReferences": {},
  "source": "// SPDX-License-Identifier: GPL-3.0\r\npragma solidity ^0.7.0;\r\npragma experimental ABIEncoderV2;\r\n\r\nimport \"./utils/Strings.sol\";\r\n\r\ncontract ContractF {\r\n  mapping(uint16 => string) private flags;\r\n  mapping(address => uint64) public balance;\r\n\r\n  constructor(string[] memory flagInput) {\r\n    // set flags\r\n    flags[2] = flagInput[1];\r\n    flags[5] = flagInput[93];\r\n    flags[4] = flagInput[59];\r\n    flags[3] = flagInput[56];\r\n    flags[6] = flagInput[6];\r\n    flags[1] = flagInput[23];\r\n  }\r\n\r\n  function assembleFlag (string memory flag) internal pure returns (string memory) {\r\n    return string(abi.encodePacked(\"capctf{\", flag, \"}\"));\r\n  }\r\n\r\n  function register (address customerAddr) external {\r\n    require(balance[customerAddr]  == 0, \"Customer is already registered.\");\r\n    // award welcome bonus\r\n    balance[customerAddr] = 1e16;\r\n  }\r\n\r\n  function withdraw (address customerAddr, uint64 amount) external {\r\n    require(balance[customerAddr]  != 0, \"Customer must register first.\");\r\n    uint64 newBalance = balance[customerAddr] - amount;\r\n    require(newBalance >= 0, \"Cannot withdraw more than balance\");\r\n    balance[customerAddr] = newBalance;\r\n  }\r\n\r\n  function checkBalance (address customerAddr) external view returns (string memory) {\r\n    if (balance[customerAddr] > 18e18) {\r\n      // how did you get all that money?\r\n      return assembleFlag(flags[6]);\r\n    } else {\r\n      return Strings.toString(balance[customerAddr]);\r\n    }\r\n  }\r\n}",
  "sourcePath": "C:\\Users\\cgjorsvi\\Documents\\CoP_Cybersecurity\\CTF\\Julekalender2022\\eth\\Contracts\\contracts\\ContractF.sol",
  "compiler": {
    "name": "solc",
    "version": "0.7.6+commit.7338295f.Emscripten.clang"
  },
  "schemaVersion": "3.4.10",
  "updatedAt": "2022-12-05T14:50:33.831Z",
  "devdoc": {
    "kind": "dev",
    "methods": {},
    "version": 1
  },
  "userdoc": {
    "kind": "user",
    "methods": {},
    "version": 1
  }
}