{
  "contractName": "Contract2",
  "abi": [
    {
      "inputs": [
        {
          "internalType": "string[]",
          "name": "flagInput",
          "type": "string[]"
        },
        {
          "internalType": "address",
          "name": "friendAddr",
          "type": "address"
        }
      ],
      "stateMutability": "nonpayable",
      "type": "constructor"
    },
    {
      "inputs": [],
      "name": "codeword",
      "outputs": [
        {
          "internalType": "bytes",
          "name": "",
          "type": "bytes"
        }
      ],
      "stateMutability": "view",
      "type": "function"
    },
    {
      "inputs": [],
      "name": "friend",
      "outputs": [
        {
          "internalType": "address",
          "name": "",
          "type": "address"
        }
      ],
      "stateMutability": "view",
      "type": "function"
    },
    {
      "inputs": [],
      "name": "owner",
      "outputs": [
        {
          "internalType": "address",
          "name": "",
          "type": "address"
        }
      ],
      "stateMutability": "view",
      "type": "function"
    },
    {
      "inputs": [],
      "name": "getFlag1",
      "outputs": [
        {
          "internalType": "string",
          "name": "",
          "type": "string"
        }
      ],
      "stateMutability": "view",
      "type": "function"
    },
    {
      "inputs": [],
      "name": "getFlag2",
      "outputs": [
        {
          "internalType": "string",
          "name": "",
          "type": "string"
        }
      ],
      "stateMutability": "payable",
      "type": "function"
    },
    {
      "inputs": [
        {
          "internalType": "bytes",
          "name": "codewordInput",
          "type": "bytes"
        }
      ],
      "name": "getFlag3",
      "outputs": [
        {
          "internalType": "string",
          "name": "",
          "type": "string"
        }
      ],
      "stateMutability": "view",
      "type": "function"
    },
    {
      "inputs": [],
      "name": "getFlag4",
      "outputs": [
        {
          "internalType": "string",
          "name": "",
          "type": "string"
        }
      ],
      "stateMutability": "view",
      "type": "function"
    },
    {
      "inputs": [],
      "name": "getFlag5",
      "outputs": [
        {
          "internalType": "string",
          "name": "",
          "type": "string"
        }
      ],
      "stateMutability": "view",
      "type": "function"
    }
  ],
  "bytecode": "0x6080604052336000806101000a81548173ffffffffffffffffffffffffffffffffffffffff021916908373ffffffffffffffffffffffffffffffffffffffff1602179055506040518060400160405280600681526020017f706c656173650000000000000000000000000000000000000000000000000000815250600390816200008a9190620004df565b503480156200009857600080fd5b50604051620018d3380380620018d38339818101604052810190620000be91906200088b565b80600260006101000a81548173ffffffffffffffffffffffffffffffffffffffff021916908373ffffffffffffffffffffffffffffffffffffffff16021790555081601781518110620001165762000115620008f1565b5b602002602001015160016000600261ffff168152602001908152602001600020908162000144919062000985565b50816009815181106200015c576200015b620008f1565b5b602002602001015160016000600561ffff16815260200190815260200160002090816200018a919062000985565b5081601281518110620001a257620001a1620008f1565b5b602002602001015160016000600461ffff1681526020019081526020016000209081620001d0919062000985565b5081600d81518110620001e857620001e7620008f1565b5b602002602001015160016000600361ffff168152602001908152602001600020908162000216919062000985565b50816005815181106200022e576200022d620008f1565b5b602002602001015160016000600161ffff16815260200190815260200160002090816200025c919062000985565b50505062000a6c565b600081519050919050565b7f4e487b7100000000000000000000000000000000000000000000000000000000600052604160045260246000fd5b7f4e487b7100000000000000000000000000000000000000000000000000000000600052602260045260246000fd5b60006002820490506001821680620002e757607f821691505b602082108103620002fd57620002fc6200029f565b5b50919050565b60008190508160005260206000209050919050565b60006020601f8301049050919050565b600082821b905092915050565b600060088302620003677fffffffffffffffffffffffffffffffffffffffffffffffffffffffffffffffff8262000328565b62000373868362000328565b95508019841693508086168417925050509392505050565b6000819050919050565b6000819050919050565b6000620003c0620003ba620003b4846200038b565b62000395565b6200038b565b9050919050565b6000819050919050565b620003dc836200039f565b620003f4620003eb82620003c7565b84845462000335565b825550505050565b600090565b6200040b620003fc565b62000418818484620003d1565b505050565b5b8181101562000440576200043460008262000401565b6001810190506200041e565b5050565b601f8211156200048f57620004598162000303565b620004648462000318565b8101602085101562000474578190505b6200048c620004838562000318565b8301826200041d565b50505b505050565b600082821c905092915050565b6000620004b46000198460080262000494565b1980831691505092915050565b6000620004cf8383620004a1565b9150826002028217905092915050565b620004ea8262000265565b67ffffffffffffffff81111562000506576200050562000270565b5b620005128254620002ce565b6200051f82828562000444565b600060209050601f83116001811462000557576000841562000542578287015190505b6200054e8582620004c1565b865550620005be565b601f198416620005678662000303565b60005b8281101562000591578489015182556001820191506020850194506020810190506200056a565b86831015620005b15784890151620005ad601f891682620004a1565b8355505b6001600288020188555050505b505050505050565b6000604051905090565b600080fd5b600080fd5b600080fd5b6000601f19601f8301169050919050565b620005fb82620005df565b810181811067ffffffffffffffff821117156200061d576200061c62000270565b5b80604052505050565b600062000632620005c6565b9050620006408282620005f0565b919050565b600067ffffffffffffffff82111562000663576200066262000270565b5b602082029050602081019050919050565b600080fd5b600080fd5b600067ffffffffffffffff8211156200069c576200069b62000270565b5b620006a782620005df565b9050602081019050919050565b60005b83811015620006d4578082015181840152602081019050620006b7565b60008484015250505050565b6000620006f7620006f1846200067e565b62000626565b90508281526020810184848401111562000716576200071562000679565b5b62000723848285620006b4565b509392505050565b600082601f830112620007435762000742620005da565b5b815162000755848260208601620006e0565b91505092915050565b6000620007756200076f8462000645565b62000626565b905080838252602082019050602084028301858111156200079b576200079a62000674565b5b835b81811015620007e957805167ffffffffffffffff811115620007c457620007c3620005da565b5b808601620007d389826200072b565b855260208501945050506020810190506200079d565b5050509392505050565b600082601f8301126200080b576200080a620005da565b5b81516200081d8482602086016200075e565b91505092915050565b600073ffffffffffffffffffffffffffffffffffffffff82169050919050565b6000620008538262000826565b9050919050565b620008658162000846565b81146200087157600080fd5b50565b60008151905062000885816200085a565b92915050565b60008060408385031215620008a557620008a4620005d0565b5b600083015167ffffffffffffffff811115620008c657620008c5620005d5565b5b620008d485828601620007f3565b9250506020620008e78582860162000874565b9150509250929050565b7f4e487b7100000000000000000000000000000000000000000000000000000000600052603260045260246000fd5b60008190508160005260206000209050919050565b601f82111562000980576200094a8162000920565b620009558462000318565b8101602085101562000965578190505b6200097d620009748562000318565b8301826200041d565b50505b505050565b620009908262000265565b67ffffffffffffffff811115620009ac57620009ab62000270565b5b620009b88254620002ce565b620009c582828562000935565b600060209050601f831160018114620009fd5760008415620009e8578287015190505b620009f48582620004c1565b86555062000a64565b601f19841662000a0d8662000920565b60005b8281101562000a375784890151825560018201915060208501945060208101905062000a10565b8683101562000a57578489015162000a53601f891682620004a1565b8355505b6001600288020188555050505b505050505050565b610e578062000a7c6000396000f3fe60806040526004361061007b5760003560e01c8063778b75971161004e578063778b75971461013e5780637b11c54f146101695780638da5cb5b14610187578063901e4229146101b25761007b565b80630217326d14610080578063462056c0146100ab578063504d21aa146100d657806354a3ee2714610113575b600080fd5b34801561008c57600080fd5b506100956101dd565b6040516100a29190610859565b60405180910390f35b3480156100b757600080fd5b506100c061031d565b6040516100cd91906108d0565b60405180910390f35b3480156100e257600080fd5b506100fd60048036038101906100f89190610a3b565b6103ab565b60405161010a9190610859565b60405180910390f35b34801561011f57600080fd5b5061012861041b565b6040516101359190610859565b60405180910390f35b34801561014a57600080fd5b506101536104dd565b6040516101609190610859565b60405180910390f35b61017161058d565b60405161017e9190610859565b60405180910390f35b34801561019357600080fd5b5061019c61068d565b6040516101a99190610ac5565b60405180910390f35b3480156101be57600080fd5b506101c76106b1565b6040516101d49190610ac5565b60405180910390f35b6060600260009054906101000a900473ffffffffffffffffffffffffffffffffffffffff1673ffffffffffffffffffffffffffffffffffffffff163373ffffffffffffffffffffffffffffffffffffffff161461026f576040517f08c379a000000000000000000000000000000000000000000000000000000000815260040161026690610b52565b60405180910390fd5b61031860016000600461ffff168152602001908152602001600020805461029590610ba1565b80601f01602080910402602001604051908101604052809291908181526020018280546102c190610ba1565b801561030e5780601f106102e35761010080835404028352916020019161030e565b820191906000526020600020905b8154815290600101906020018083116102f157829003601f168201915b50505050506106d7565b905090565b6003805461032a90610ba1565b80601f016020809104026020016040519081016040528092919081815260200182805461035690610ba1565b80156103a35780601f10610378576101008083540402835291602001916103a3565b820191906000526020600020905b81548152906001019060200180831161038657829003601f168201915b505050505081565b6060818051906020012060036040516103c49190610c75565b60405180910390201461040c576040517f08c379a000000000000000000000000000000000000000000000000000000000815260040161040390610cd8565b60405180910390fd5b610414610700565b9050919050565b6060610426336107b0565b61042f57600080fd5b6104d860016000600561ffff168152602001908152602001600020805461045590610ba1565b80601f016020809104026020016040519081016040528092919081815260200182805461048190610ba1565b80156104ce5780601f106104a3576101008083540402835291602001916104ce565b820191906000526020600020905b8154815290600101906020018083116104b157829003601f168201915b50505050506106d7565b905090565b606061058860016000600161ffff168152602001908152602001600020805461050590610ba1565b80601f016020809104026020016040519081016040528092919081815260200182805461053190610ba1565b801561057e5780601f106105535761010080835404028352916020019161057e565b820191906000526020600020905b81548152906001019060200180831161056157829003601f168201915b50505050506106d7565b905090565b6060600066038d7ea4c680009050803410156105de576040517f08c379a00000000000000000000000000000000000000000000000000000000081526004016105d590610d44565b60405180910390fd5b61068760016000600261ffff168152602001908152602001600020805461060490610ba1565b80601f016020809104026020016040519081016040528092919081815260200182805461063090610ba1565b801561067d5780601f106106525761010080835404028352916020019161067d565b820191906000526020600020905b81548152906001019060200180831161066057829003601f168201915b50505050506106d7565b91505090565b60008054906101000a900473ffffffffffffffffffffffffffffffffffffffff1681565b600260009054906101000a900473ffffffffffffffffffffffffffffffffffffffff1681565b6060816040516020016106ea9190610dec565b6040516020818303038152906040529050919050565b60606107ab60016000600361ffff168152602001908152602001600020805461072890610ba1565b80601f016020809104026020016040519081016040528092919081815260200182805461075490610ba1565b80156107a15780601f10610776576101008083540402835291602001916107a1565b820191906000526020600020905b81548152906001019060200180831161078457829003601f168201915b50505050506106d7565b905090565b600080823b905060008163ffffffff1611915050919050565b600081519050919050565b600082825260208201905092915050565b60005b838110156108035780820151818401526020810190506107e8565b60008484015250505050565b6000601f19601f8301169050919050565b600061082b826107c9565b61083581856107d4565b93506108458185602086016107e5565b61084e8161080f565b840191505092915050565b600060208201905081810360008301526108738184610820565b905092915050565b600081519050919050565b600082825260208201905092915050565b60006108a28261087b565b6108ac8185610886565b93506108bc8185602086016107e5565b6108c58161080f565b840191505092915050565b600060208201905081810360008301526108ea8184610897565b905092915050565b6000604051905090565b600080fd5b600080fd5b600080fd5b600080fd5b7f4e487b7100000000000000000000000000000000000000000000000000000000600052604160045260246000fd5b6109488261080f565b810181811067ffffffffffffffff8211171561096757610966610910565b5b80604052505050565b600061097a6108f2565b9050610986828261093f565b919050565b600067ffffffffffffffff8211156109a6576109a5610910565b5b6109af8261080f565b9050602081019050919050565b82818337600083830152505050565b60006109de6109d98461098b565b610970565b9050828152602081018484840111156109fa576109f961090b565b5b610a058482856109bc565b509392505050565b600082601f830112610a2257610a21610906565b5b8135610a328482602086016109cb565b91505092915050565b600060208284031215610a5157610a506108fc565b5b600082013567ffffffffffffffff811115610a6f57610a6e610901565b5b610a7b84828501610a0d565b91505092915050565b600073ffffffffffffffffffffffffffffffffffffffff82169050919050565b6000610aaf82610a84565b9050919050565b610abf81610aa4565b82525050565b6000602082019050610ada6000830184610ab6565b92915050565b7f546869732066756e6374696f6e206973207265737472696374656420746f206160008201527f20667269656e64206f662074686520636f6e7472616374000000000000000000602082015250565b6000610b3c6037836107d4565b9150610b4782610ae0565b604082019050919050565b60006020820190508181036000830152610b6b81610b2f565b9050919050565b7f4e487b7100000000000000000000000000000000000000000000000000000000600052602260045260246000fd5b60006002820490506001821680610bb957607f821691505b602082108103610bcc57610bcb610b72565b5b50919050565b600081905092915050565b60008190508160005260206000209050919050565b60008154610bff81610ba1565b610c098186610bd2565b94506001821660008114610c245760018114610c3957610c6c565b60ff1983168652811515820286019350610c6c565b610c4285610bdd565b60005b83811015610c6457815481890152600182019150602081019050610c45565b838801955050505b50505092915050565b6000610c818284610bf2565b915081905092915050565b7f496e636f727265637420636f6465776f72640000000000000000000000000000600082015250565b6000610cc26012836107d4565b9150610ccd82610c8c565b602082019050919050565b60006020820190508181036000830152610cf181610cb5565b9050919050565b7f4e6f7420656e6f75676820476f65726c6920455448207761732073656e742e00600082015250565b6000610d2e601f836107d4565b9150610d3982610cf8565b602082019050919050565b60006020820190508181036000830152610d5d81610d21565b9050919050565b7f6361706374667b00000000000000000000000000000000000000000000000000815250565b600081905092915050565b6000610da0826107c9565b610daa8185610d8a565b9350610dba8185602086016107e5565b80840191505092915050565b7f7d00000000000000000000000000000000000000000000000000000000000000815250565b6000610df782610d64565b600782019150610e078284610d95565b9150610e1282610dc6565b6001820191508190509291505056fea26469706673582212204fb391aaae042e9a1d798673efe653821fceca643a20a71c71f37c8ce4dcbe8864736f6c63430008110033",
  "immutableReferences": {},
  "source": "// SPDX-License-Identifier: GPL-3.0\r\npragma solidity >=0.8.17 <0.9.0;\r\n\r\ncontract Contract2 {\r\n  address public owner = msg.sender;\r\n  mapping(uint16 => string) private flags;\r\n  address public friend;\r\n  bytes public codeword = \"please\";\r\n\r\n  // this function runs when the contract is deployed\r\n  constructor(string[] memory flagInput, address friendAddr) {\r\n    friend = friendAddr;\r\n    // set flags\r\n    flags[2] = flagInput[23];\r\n    flags[5] = flagInput[9];\r\n    flags[4] = flagInput[18];\r\n    flags[3] = flagInput[13];\r\n    flags[1] = flagInput[5];\r\n  }\r\n\r\n  function assembleFlag (string memory flag) internal pure returns (string memory) {\r\n    return string.concat(\"capctf{\", flag, \"}\");\r\n  }\r\n\r\n  function getFlag1 () external view returns (string memory) {\r\n    return assembleFlag(flags[1]);\r\n  }\r\n\r\n  function getFlag2 () external payable returns (string memory) {\r\n    uint cost = 1e15;\r\n    require(msg.value >= cost, \"Not enough Goerli ETH was sent.\");\r\n    return assembleFlag(flags[2]);\r\n  }\r\n\r\n  function actuallyGetFlag3 () internal view returns (string memory) {\r\n    return assembleFlag(flags[3]);\r\n  }\r\n\r\n  function getFlag3 (bytes memory codewordInput) external view returns (string memory) {\r\n    require(keccak256(codeword) == keccak256(codewordInput), \"Incorrect codeword\");\r\n    return actuallyGetFlag3();\r\n  }\r\n\r\n  function getFlag4 () external view isFriend returns (string memory) {\r\n    return assembleFlag(flags[4]);\r\n  }\r\n\r\n  function isContract (address _addr) internal view returns (bool) {\r\n    uint32 size;\r\n    assembly {\r\n      size := extcodesize(_addr)\r\n    }\r\n    return (size > 0);\r\n  }\r\n\r\n  function getFlag5 () external view returns (string memory) {\r\n    require(isContract(msg.sender));\r\n    return assembleFlag(flags[5]);\r\n  }\r\n  \r\n  modifier isFriend() {\r\n    require(\r\n      msg.sender == friend,\r\n      \"This function is restricted to a friend of the contract\"\r\n    );\r\n    _;\r\n  }\r\n\r\n  modifier ownerOnly() {\r\n    require(\r\n      msg.sender == owner,\r\n      \"This function is restricted to the contract's owner\"\r\n    );\r\n    _;\r\n  }\r\n}",
  "sourcePath": "C:\\Users\\cgjorsvi\\Documents\\CoP_Cybersecurity\\CTF\\Julekalender2022\\eth\\Contracts\\contracts\\Contract2.sol",
  "compiler": {
    "name": "solc",
    "version": "0.8.17+commit.8df45f5f.Emscripten.clang"
  },
  "schemaVersion": "3.4.10",
  "updatedAt": "2022-11-25T09:14:32.846Z",
  "devdoc": {
    "kind": "dev",
    "methods": {},
    "version": 1
  },
  "userdoc": {
    "kind": "user",
    "methods": {},
    "version": 1
  }
}