{
  "contractName": "Contract2",
  "abi": [
    {
      "inputs": [
        {
          "internalType": "string",
          "name": "flagInput",
          "type": "string"
        }
      ],
      "stateMutability": "nonpayable",
      "type": "constructor"
    },
    {
      "inputs": [],
      "name": "flag1",
      "outputs": [
        {
          "internalType": "string",
          "name": "",
          "type": "string"
        }
      ],
      "stateMutability": "view",
      "type": "function"
    },
    {
      "inputs": [],
      "name": "friend",
      "outputs": [
        {
          "internalType": "address",
          "name": "",
          "type": "address"
        }
      ],
      "stateMutability": "view",
      "type": "function"
    },
    {
      "inputs": [],
      "name": "owner",
      "outputs": [
        {
          "internalType": "address",
          "name": "",
          "type": "address"
        }
      ],
      "stateMutability": "view",
      "type": "function"
    },
    {
      "inputs": [],
      "name": "getFlag2",
      "outputs": [
        {
          "internalType": "string",
          "name": "",
          "type": "string"
        }
      ],
      "stateMutability": "view",
      "type": "function"
    },
    {
      "inputs": [
        {
          "internalType": "string",
          "name": "flg",
          "type": "string"
        }
      ],
      "name": "setFlag1",
      "outputs": [],
      "stateMutability": "nonpayable",
      "type": "function"
    }
  ],
  "bytecode": "0x6080604052336000806101000a81548173ffffffffffffffffffffffffffffffffffffffff021916908373ffffffffffffffffffffffffffffffffffffffff1602179055506040518060400160405280600881526020017f74657374666c6167000000000000000000000000000000000000000000000000815250600290816200008a919062000351565b503480156200009857600080fd5b506040516200106a3803806200106a8339818101604052810190620000be91906200059c565b8060019081620000cf919062000351565b5050620005ed565b600081519050919050565b7f4e487b7100000000000000000000000000000000000000000000000000000000600052604160045260246000fd5b7f4e487b7100000000000000000000000000000000000000000000000000000000600052602260045260246000fd5b600060028204905060018216806200015957607f821691505b6020821081036200016f576200016e62000111565b5b50919050565b60008190508160005260206000209050919050565b60006020601f8301049050919050565b600082821b905092915050565b600060088302620001d97fffffffffffffffffffffffffffffffffffffffffffffffffffffffffffffffff826200019a565b620001e586836200019a565b95508019841693508086168417925050509392505050565b6000819050919050565b6000819050919050565b6000620002326200022c6200022684620001fd565b62000207565b620001fd565b9050919050565b6000819050919050565b6200024e8362000211565b620002666200025d8262000239565b848454620001a7565b825550505050565b600090565b6200027d6200026e565b6200028a81848462000243565b505050565b5b81811015620002b257620002a660008262000273565b60018101905062000290565b5050565b601f8211156200030157620002cb8162000175565b620002d6846200018a565b81016020851015620002e6578190505b620002fe620002f5856200018a565b8301826200028f565b50505b505050565b600082821c905092915050565b6000620003266000198460080262000306565b1980831691505092915050565b600062000341838362000313565b9150826002028217905092915050565b6200035c82620000d7565b67ffffffffffffffff811115620003785762000377620000e2565b5b62000384825462000140565b62000391828285620002b6565b600060209050601f831160018114620003c95760008415620003b4578287015190505b620003c0858262000333565b86555062000430565b601f198416620003d98662000175565b60005b828110156200040357848901518255600182019150602085019450602081019050620003dc565b868310156200042357848901516200041f601f89168262000313565b8355505b6001600288020188555050505b505050505050565b6000604051905090565b600080fd5b600080fd5b600080fd5b600080fd5b6000601f19601f8301169050919050565b620004728262000456565b810181811067ffffffffffffffff82111715620004945762000493620000e2565b5b80604052505050565b6000620004a962000438565b9050620004b7828262000467565b919050565b600067ffffffffffffffff821115620004da57620004d9620000e2565b5b620004e58262000456565b9050602081019050919050565b60005b8381101562000512578082015181840152602081019050620004f5565b60008484015250505050565b6000620005356200052f84620004bc565b6200049d565b90508281526020810184848401111562000554576200055362000451565b5b62000561848285620004f2565b509392505050565b600082601f8301126200058157620005806200044c565b5b8151620005938482602086016200051e565b91505092915050565b600060208284031215620005b557620005b462000442565b5b600082015167ffffffffffffffff811115620005d657620005d562000447565b5b620005e48482850162000569565b91505092915050565b610a6d80620005fd6000396000f3fe608060405234801561001057600080fd5b50600436106100575760003560e01c806349ed73941461005c5780636c1d984d1461007a5780637b11c54f146100965780638da5cb5b146100b4578063901e4229146100d2575b600080fd5b6100646100f0565b604051610071919061041b565b60405180910390f35b610094600480360381019061008f9190610586565b61017e565b005b61009e61021f565b6040516100ab919061041b565b60405180910390f35b6100bc610341565b6040516100c99190610610565b60405180910390f35b6100da610365565b6040516100e79190610610565b60405180910390f35b600180546100fd9061065a565b80601f01602080910402602001604051908101604052809291908181526020018280546101299061065a565b80156101765780601f1061014b57610100808354040283529160200191610176565b820191906000526020600020905b81548152906001019060200180831161015957829003601f168201915b505050505081565b60008054906101000a900473ffffffffffffffffffffffffffffffffffffffff1673ffffffffffffffffffffffffffffffffffffffff163373ffffffffffffffffffffffffffffffffffffffff161461020c576040517f08c379a0000000000000000000000000000000000000000000000000000000008152600401610203906106fd565b60405180910390fd5b806001908161021b91906108d3565b5050565b6060600360009054906101000a900473ffffffffffffffffffffffffffffffffffffffff1673ffffffffffffffffffffffffffffffffffffffff163373ffffffffffffffffffffffffffffffffffffffff16146102b1576040517f08c379a00000000000000000000000000000000000000000000000000000000081526004016102a890610a17565b60405180910390fd5b600280546102be9061065a565b80601f01602080910402602001604051908101604052809291908181526020018280546102ea9061065a565b80156103375780601f1061030c57610100808354040283529160200191610337565b820191906000526020600020905b81548152906001019060200180831161031a57829003601f168201915b5050505050905090565b60008054906101000a900473ffffffffffffffffffffffffffffffffffffffff1681565b600360009054906101000a900473ffffffffffffffffffffffffffffffffffffffff1681565b600081519050919050565b600082825260208201905092915050565b60005b838110156103c55780820151818401526020810190506103aa565b60008484015250505050565b6000601f19601f8301169050919050565b60006103ed8261038b565b6103f78185610396565b93506104078185602086016103a7565b610410816103d1565b840191505092915050565b6000602082019050818103600083015261043581846103e2565b905092915050565b6000604051905090565b600080fd5b600080fd5b600080fd5b600080fd5b7f4e487b7100000000000000000000000000000000000000000000000000000000600052604160045260246000fd5b610493826103d1565b810181811067ffffffffffffffff821117156104b2576104b161045b565b5b80604052505050565b60006104c561043d565b90506104d1828261048a565b919050565b600067ffffffffffffffff8211156104f1576104f061045b565b5b6104fa826103d1565b9050602081019050919050565b82818337600083830152505050565b6000610529610524846104d6565b6104bb565b90508281526020810184848401111561054557610544610456565b5b610550848285610507565b509392505050565b600082601f83011261056d5761056c610451565b5b813561057d848260208601610516565b91505092915050565b60006020828403121561059c5761059b610447565b5b600082013567ffffffffffffffff8111156105ba576105b961044c565b5b6105c684828501610558565b91505092915050565b600073ffffffffffffffffffffffffffffffffffffffff82169050919050565b60006105fa826105cf565b9050919050565b61060a816105ef565b82525050565b60006020820190506106256000830184610601565b92915050565b7f4e487b7100000000000000000000000000000000000000000000000000000000600052602260045260246000fd5b6000600282049050600182168061067257607f821691505b6020821081036106855761068461062b565b5b50919050565b7f546869732066756e6374696f6e206973207265737472696374656420746f207460008201527f686520636f6e74726163742773206f776e657200000000000000000000000000602082015250565b60006106e7603383610396565b91506106f28261068b565b604082019050919050565b60006020820190508181036000830152610716816106da565b9050919050565b60008190508160005260206000209050919050565b60006020601f8301049050919050565b600082821b905092915050565b60006008830261077f7fffffffffffffffffffffffffffffffffffffffffffffffffffffffffffffffff82610742565b6107898683610742565b95508019841693508086168417925050509392505050565b6000819050919050565b6000819050919050565b60006107d06107cb6107c6846107a1565b6107ab565b6107a1565b9050919050565b6000819050919050565b6107ea836107b5565b6107fe6107f6826107d7565b84845461074f565b825550505050565b600090565b610813610806565b61081e8184846107e1565b505050565b5b818110156108425761083760008261080b565b600181019050610824565b5050565b601f821115610887576108588161071d565b61086184610732565b81016020851015610870578190505b61088461087c85610732565b830182610823565b50505b505050565b600082821c905092915050565b60006108aa6000198460080261088c565b1980831691505092915050565b60006108c38383610899565b9150826002028217905092915050565b6108dc8261038b565b67ffffffffffffffff8111156108f5576108f461045b565b5b6108ff825461065a565b61090a828285610846565b600060209050601f83116001811461093d576000841561092b578287015190505b61093585826108b7565b86555061099d565b601f19841661094b8661071d565b60005b828110156109735784890151825560018201915060208501945060208101905061094e565b86831015610990578489015161098c601f891682610899565b8355505b6001600288020188555050505b505050505050565b7f546869732066756e6374696f6e206973207265737472696374656420746f206160008201527f20667269656e64206f662074686520636f6e7472616374000000000000000000602082015250565b6000610a01603783610396565b9150610a0c826109a5565b604082019050919050565b60006020820190508181036000830152610a30816109f4565b905091905056fea26469706673582212204407b8805f11a42b620dafb8968be121af09e0c610def074bc708a1c660f80f364736f6c63430008110033",
  "immutableReferences": {},
  "source": "// SPDX-License-Identifier: GPL-3.0\r\npragma solidity >=0.8.17 <0.9.0;\r\n\r\ncontract Contract2 {\r\n  address public owner = msg.sender;\r\n  string public flag1;\r\n  string private flag2 = \"testflag\";\r\n  address public friend;\r\n\r\n  // this function runs when the contract is deployed\r\n  constructor(string memory flagInput) {\r\n    // set flag\r\n    flag1 = flagInput;\r\n  }\r\n\r\n  function getFlag2 () external view isFriend returns(string memory) {\r\n    return flag2;\r\n  }\r\n\r\n  function setFlag1 (string memory flg) external ownerOnly {\r\n    flag1 = flg;\r\n  }\r\n  \r\n  modifier isFriend() {\r\n    require(\r\n      msg.sender == friend,\r\n      \"This function is restricted to a friend of the contract\"\r\n    );\r\n    _;\r\n  }\r\n\r\n  modifier ownerOnly() {\r\n    require(\r\n      msg.sender == owner,\r\n      \"This function is restricted to the contract's owner\"\r\n    );\r\n    _;\r\n  }\r\n}",
  "sourcePath": "C:\\Users\\cgjorsvi\\Documents\\CoP_Cybersecurity\\CTF\\Julekalender2022\\eth\\Contracts\\contracts\\Contract2.sol",
  "compiler": {
    "name": "solc",
    "version": "0.8.17+commit.8df45f5f.Emscripten.clang"
  },
  "schemaVersion": "3.4.10",
  "updatedAt": "2022-11-23T09:40:34.802Z",
  "devdoc": {
    "kind": "dev",
    "methods": {},
    "version": 1
  },
  "userdoc": {
    "kind": "user",
    "methods": {},
    "version": 1
  }
}