{
  "contractName": "ContractF",
  "abi": [
    {
      "inputs": [
        {
          "internalType": "string[]",
          "name": "flagInput",
          "type": "string[]"
        }
      ],
      "stateMutability": "nonpayable",
      "type": "constructor"
    },
    {
      "inputs": [
        {
          "internalType": "address",
          "name": "customerAddr",
          "type": "address"
        }
      ],
      "name": "register",
      "outputs": [],
      "stateMutability": "nonpayable",
      "type": "function"
    },
    {
      "inputs": [
        {
          "internalType": "address",
          "name": "customerAddr",
          "type": "address"
        },
        {
          "internalType": "uint64",
          "name": "amount",
          "type": "uint64"
        }
      ],
      "name": "withdraw",
      "outputs": [],
      "stateMutability": "nonpayable",
      "type": "function"
    },
    {
      "inputs": [
        {
          "internalType": "address",
          "name": "customerAddr",
          "type": "address"
        }
      ],
      "name": "checkBalance",
      "outputs": [
        {
          "internalType": "string",
          "name": "",
          "type": "string"
        }
      ],
      "stateMutability": "view",
      "type": "function"
    }
  ],
  "bytecode": "0x60806040523480156200001157600080fd5b5060405162000f4e38038062000f4e83398181016040528101906200003791906200038a565b806001815181106200004557fe5b6020026020010151600080600261ffff168152602001908152602001600020908051906020019062000079929190620001d0565b5080605d815181106200008857fe5b6020026020010151600080600561ffff1681526020019081526020016000209080519060200190620000bc929190620001d0565b5080603b81518110620000cb57fe5b6020026020010151600080600461ffff1681526020019081526020016000209080519060200190620000ff929190620001d0565b50806038815181106200010e57fe5b6020026020010151600080600361ffff168152602001908152602001600020908051906020019062000142929190620001d0565b5080600b815181106200015157fe5b6020026020010151600080600661ffff168152602001908152602001600020908051906020019062000185929190620001d0565b50806017815181106200019457fe5b6020026020010151600080600161ffff1681526020019081526020016000209080519060200190620001c8929190620001d0565b50506200049d565b828054600181600116156101000203166002900490600052602060002090601f01602090048101928262000208576000855562000254565b82601f106200022357805160ff191683800117855562000254565b8280016001018555821562000254579182015b828111156200025357825182559160200191906001019062000236565b5b50905062000263919062000267565b5090565b5b808211156200028257600081600090555060010162000268565b5090565b60006200029d620002978462000403565b620003cf565b9050808382526020820190508260005b85811015620002e15781518501620002c688826200035d565b845260208401935060208301925050600181019050620002ad565b5050509392505050565b600062000302620002fc8462000432565b620003cf565b9050828152602081018484840111156200031b57600080fd5b6200032884828562000465565b509392505050565b600082601f8301126200034257600080fd5b81516200035484826020860162000286565b91505092915050565b600082601f8301126200036f57600080fd5b815162000381848260208601620002eb565b91505092915050565b6000602082840312156200039d57600080fd5b600082015167ffffffffffffffff811115620003b857600080fd5b620003c68482850162000330565b91505092915050565b6000604051905081810181811067ffffffffffffffff82111715620003f957620003f86200049b565b5b8060405250919050565b600067ffffffffffffffff8211156200042157620004206200049b565b5b602082029050602081019050919050565b600067ffffffffffffffff82111562000450576200044f6200049b565b5b601f19601f8301169050602081019050919050565b60005b838110156200048557808201518184015260208101905062000468565b8381111562000495576000848401525b50505050565bfe5b610aa180620004ad6000396000f3fe608060405234801561001057600080fd5b50600436106100415760003560e01c80634420e486146100465780635f51522614610062578063d6dad06014610092575b600080fd5b610060600480360381019061005b91906106a8565b6100ae565b005b61007c600480360381019061007791906106a8565b6101be565b604051610089919061090a565b60405180910390f35b6100ac60048036038101906100a791906106d1565b61035a565b005b6000600160008373ffffffffffffffffffffffffffffffffffffffff1673ffffffffffffffffffffffffffffffffffffffff16815260200190815260200160002060009054906101000a900467ffffffffffffffff1667ffffffffffffffff161461014e576040517f08c379a00000000000000000000000000000000000000000000000000000000081526004016101459061096c565b60405180910390fd5b662386f26fc10000600160008373ffffffffffffffffffffffffffffffffffffffff1673ffffffffffffffffffffffffffffffffffffffff16815260200190815260200160002060006101000a81548167ffffffffffffffff021916908367ffffffffffffffff16021790555050565b606067f9ccd8a1c5080000600160008473ffffffffffffffffffffffffffffffffffffffff1673ffffffffffffffffffffffffffffffffffffffff16815260200190815260200160002060009054906101000a900467ffffffffffffffff1667ffffffffffffffff1611156102ec576102e5600080600661ffff1681526020019081526020016000208054600181600116156101000203166002900480601f0160208091040260200160405190810160405280929190818152602001828054600181600116156101000203166002900480156102db5780601f106102b0576101008083540402835291602001916102db565b820191906000526020600020905b8154815290600101906020018083116102be57829003601f168201915b505050505061050e565b9050610355565b610352600160008473ffffffffffffffffffffffffffffffffffffffff1673ffffffffffffffffffffffffffffffffffffffff16815260200190815260200160002060009054906101000a900467ffffffffffffffff1667ffffffffffffffff16610537565b90505b919050565b6000600160008473ffffffffffffffffffffffffffffffffffffffff1673ffffffffffffffffffffffffffffffffffffffff16815260200190815260200160002060009054906101000a900467ffffffffffffffff1667ffffffffffffffff1614156103fb576040517f08c379a00000000000000000000000000000000000000000000000000000000081526004016103f29061092c565b60405180910390fd5b600081600160008573ffffffffffffffffffffffffffffffffffffffff1673ffffffffffffffffffffffffffffffffffffffff16815260200190815260200160002060009054906101000a900467ffffffffffffffff1603905060008167ffffffffffffffff1610156104a3576040517f08c379a000000000000000000000000000000000000000000000000000000000815260040161049a9061094c565b60405180910390fd5b80600160008573ffffffffffffffffffffffffffffffffffffffff1673ffffffffffffffffffffffffffffffffffffffff16815260200190815260200160002060006101000a81548167ffffffffffffffff021916908367ffffffffffffffff160217905550505050565b60608160405160200161052191906108dd565b6040516020818303038152906040529050919050565b6060600082141561057f576040518060400160405280600181526020017f30000000000000000000000000000000000000000000000000000000000000008152509050610679565b600082905060005b600082146105a9578080600101915050600a82816105a157fe5b049150610587565b60008167ffffffffffffffff811180156105c257600080fd5b506040519080825280601f01601f1916602001820160405280156105f55781602001600182028036833780820191505090505b50905060006001830390508593505b6000841461067157600a848161061657fe5b0660300160f81b8282806001900393508151811061063057fe5b60200101907effffffffffffffffffffffffffffffffffffffffffffffffffffffffffffff1916908160001a905350600a848161066957fe5b049350610604565b819450505050505b919050565b60008135905061068d81610a3d565b92915050565b6000813590506106a281610a54565b92915050565b6000602082840312156106ba57600080fd5b60006106c88482850161067e565b91505092915050565b600080604083850312156106e457600080fd5b60006106f28582860161067e565b925050602061070385828601610693565b9150509250929050565b60006107188261098c565b6107228185610997565b93506107328185602086016109f9565b61073b81610a2c565b840191505092915050565b60006107518261098c565b61075b81856109a8565b935061076b8185602086016109f9565b80840191505092915050565b6000610784601d83610997565b91507f437573746f6d6572206d7573742072656769737465722066697273742e0000006000830152602082019050919050565b60006107c4602183610997565b91507f43616e6e6f74207769746864726177206d6f7265207468616e2062616c616e6360008301527f65000000000000000000000000000000000000000000000000000000000000006020830152604082019050919050565b600061082a601f83610997565b91507f437573746f6d657220697320616c726561647920726567697374657265642e006000830152602082019050919050565b600061086a6007836109a8565b91507f6361706374667b000000000000000000000000000000000000000000000000006000830152600782019050919050565b60006108aa6001836109a8565b91507f7d000000000000000000000000000000000000000000000000000000000000006000830152600182019050919050565b60006108e88261085d565b91506108f48284610746565b91506108ff8261089d565b915081905092915050565b60006020820190508181036000830152610924818461070d565b905092915050565b6000602082019050818103600083015261094581610777565b9050919050565b60006020820190508181036000830152610965816107b7565b9050919050565b600060208201905081810360008301526109858161081d565b9050919050565b600081519050919050565b600082825260208201905092915050565b600081905092915050565b60006109be826109c5565b9050919050565b600073ffffffffffffffffffffffffffffffffffffffff82169050919050565b600067ffffffffffffffff82169050919050565b60005b83811015610a175780820151818401526020810190506109fc565b83811115610a26576000848401525b50505050565b6000601f19601f8301169050919050565b610a46816109b3565b8114610a5157600080fd5b50565b610a5d816109e5565b8114610a6857600080fd5b5056fea2646970667358221220150bf8de3269f6dc0682568586b3249cc92ba2fc67ba72bdc8ee02ef0683de2164736f6c63430007060033",
  "immutableReferences": {},
  "source": "// SPDX-License-Identifier: GPL-3.0\r\npragma solidity ^0.7.0;\r\npragma experimental ABIEncoderV2;\r\n\r\nimport \"./utils/Strings.sol\";\r\n\r\ncontract ContractF {\r\n  mapping(uint16 => string) private flags;\r\n  mapping(address => uint64) private balance;\r\n\r\n  constructor(string[] memory flagInput) {\r\n    // set flags\r\n    flags[2] = flagInput[1];\r\n    flags[5] = flagInput[93];\r\n    flags[4] = flagInput[59];\r\n    flags[3] = flagInput[56];\r\n    flags[6] = flagInput[11];\r\n    flags[1] = flagInput[23];\r\n  }\r\n\r\n  function assembleFlag (string memory flag) internal pure returns (string memory) {\r\n    return string(abi.encodePacked(\"capctf{\", flag, \"}\"));\r\n  }\r\n\r\n  function register (address customerAddr) external {\r\n    require(balance[customerAddr]  == 0, \"Customer is already registered.\");\r\n    // award welcome bonus\r\n    balance[customerAddr] = 1e16;\r\n  }\r\n\r\n  function withdraw (address customerAddr, uint64 amount) external {\r\n    require(balance[customerAddr]  != 0, \"Customer must register first.\");\r\n    uint64 newBalance = balance[customerAddr] - amount;\r\n    require(newBalance >= 0, \"Cannot withdraw more than balance\");\r\n    balance[customerAddr] = newBalance;\r\n  }\r\n\r\n  function checkBalance (address customerAddr) external view returns (string memory) {\r\n    if (balance[customerAddr] > 18e18) {\r\n      // 18 ETH\r\n      return assembleFlag(flags[6]);\r\n    } else {\r\n      return Strings.toString(balance[customerAddr]);\r\n    }\r\n  }\r\n}",
  "sourcePath": "C:\\Users\\cgjorsvi\\Documents\\CoP_Cybersecurity\\CTF\\Julekalender2022\\eth\\Contracts\\contracts\\ContractF.sol",
  "compiler": {
    "name": "solc",
    "version": "0.7.6+commit.7338295f.Emscripten.clang"
  },
  "schemaVersion": "3.4.10",
  "updatedAt": "2022-12-14T08:01:55.419Z",
  "devdoc": {
    "kind": "dev",
    "methods": {},
    "version": 1
  },
  "userdoc": {
    "kind": "user",
    "methods": {},
    "version": 1
  }
}