{
  "contractName": "ContractE",
  "abi": [
    {
      "inputs": [
        {
          "internalType": "string[]",
          "name": "flagInput",
          "type": "string[]"
        }
      ],
      "stateMutability": "nonpayable",
      "type": "constructor"
    },
    {
      "inputs": [],
      "name": "yourTurn",
      "outputs": [
        {
          "internalType": "string",
          "name": "",
          "type": "string"
        }
      ],
      "stateMutability": "view",
      "type": "function"
    }
  ],
  "bytecode": "0x60806040523480156200001157600080fd5b5060405162000b3e38038062000b3e833981810160405281019062000037919062000426565b806001815181106200004e576200004d62000477565b5b6020026020010151600080600261ffff16815260200190815260200160002090816200007b9190620006f1565b5080605d8151811062000093576200009262000477565b5b6020026020010151600080600561ffff1681526020019081526020016000209081620000c09190620006f1565b5080603b81518110620000d857620000d762000477565b5b6020026020010151600080600461ffff1681526020019081526020016000209081620001059190620006f1565b50806038815181106200011d576200011c62000477565b5b6020026020010151600080600361ffff16815260200190815260200160002090816200014a9190620006f1565b508060178151811062000162576200016162000477565b5b6020026020010151600080600161ffff16815260200190815260200160002090816200018f9190620006f1565b5050620007d8565b6000604051905090565b600080fd5b600080fd5b600080fd5b6000601f19601f8301169050919050565b7f4e487b7100000000000000000000000000000000000000000000000000000000600052604160045260246000fd5b620001fb82620001b0565b810181811067ffffffffffffffff821117156200021d576200021c620001c1565b5b80604052505050565b60006200023262000197565b9050620002408282620001f0565b919050565b600067ffffffffffffffff821115620002635762000262620001c1565b5b602082029050602081019050919050565b600080fd5b600080fd5b600067ffffffffffffffff8211156200029c576200029b620001c1565b5b620002a782620001b0565b9050602081019050919050565b60005b83811015620002d4578082015181840152602081019050620002b7565b60008484015250505050565b6000620002f7620002f1846200027e565b62000226565b90508281526020810184848401111562000316576200031562000279565b5b62000323848285620002b4565b509392505050565b600082601f830112620003435762000342620001ab565b5b815162000355848260208601620002e0565b91505092915050565b6000620003756200036f8462000245565b62000226565b905080838252602082019050602084028301858111156200039b576200039a62000274565b5b835b81811015620003e957805167ffffffffffffffff811115620003c457620003c3620001ab565b5b808601620003d389826200032b565b855260208501945050506020810190506200039d565b5050509392505050565b600082601f8301126200040b576200040a620001ab565b5b81516200041d8482602086016200035e565b91505092915050565b6000602082840312156200043f576200043e620001a1565b5b600082015167ffffffffffffffff81111562000460576200045f620001a6565b5b6200046e84828501620003f3565b91505092915050565b7f4e487b7100000000000000000000000000000000000000000000000000000000600052603260045260246000fd5b600081519050919050565b7f4e487b7100000000000000000000000000000000000000000000000000000000600052602260045260246000fd5b60006002820490506001821680620004f957607f821691505b6020821081036200050f576200050e620004b1565b5b50919050565b60008190508160005260206000209050919050565b60006020601f8301049050919050565b600082821b905092915050565b600060088302620005797fffffffffffffffffffffffffffffffffffffffffffffffffffffffffffffffff826200053a565b6200058586836200053a565b95508019841693508086168417925050509392505050565b6000819050919050565b6000819050919050565b6000620005d2620005cc620005c6846200059d565b620005a7565b6200059d565b9050919050565b6000819050919050565b620005ee83620005b1565b62000606620005fd82620005d9565b84845462000547565b825550505050565b600090565b6200061d6200060e565b6200062a818484620005e3565b505050565b5b8181101562000652576200064660008262000613565b60018101905062000630565b5050565b601f821115620006a1576200066b8162000515565b62000676846200052a565b8101602085101562000686578190505b6200069e62000695856200052a565b8301826200062f565b50505b505050565b600082821c905092915050565b6000620006c660001984600802620006a6565b1980831691505092915050565b6000620006e18383620006b3565b9150826002028217905092915050565b620006fc82620004a6565b67ffffffffffffffff811115620007185762000717620001c1565b5b620007248254620004e0565b6200073182828562000656565b600060209050601f83116001811462000769576000841562000754578287015190505b620007608582620006d3565b865550620007d0565b601f198416620007798662000515565b60005b82811015620007a3578489015182556001820191506020850194506020810190506200077c565b86831015620007c35784890151620007bf601f891682620006b3565b8355505b6001600288020188555050505b505050505050565b61035680620007e86000396000f3fe608060405234801561001057600080fd5b506004361061002b5760003560e01c806319b9c32014610030575b600080fd5b61003861004e565b60405161004591906101e1565b60405180910390f35b60606100593361010f565b61006257600080fd5b61010a600080600561ffff168152602001908152602001600020805461008790610232565b80601f01602080910402602001604051908101604052809291908181526020018280546100b390610232565b80156101005780601f106100d557610100808354040283529160200191610100565b820191906000526020600020905b8154815290600101906020018083116100e357829003601f168201915b5050505050610128565b905090565b600080823b905060008163ffffffff1611915050919050565b60608160405160200161013b91906102eb565b6040516020818303038152906040529050919050565b600081519050919050565b600082825260208201905092915050565b60005b8381101561018b578082015181840152602081019050610170565b60008484015250505050565b6000601f19601f8301169050919050565b60006101b382610151565b6101bd818561015c565b93506101cd81856020860161016d565b6101d681610197565b840191505092915050565b600060208201905081810360008301526101fb81846101a8565b905092915050565b7f4e487b7100000000000000000000000000000000000000000000000000000000600052602260045260246000fd5b6000600282049050600182168061024a57607f821691505b60208210810361025d5761025c610203565b5b50919050565b7f6361706374667b00000000000000000000000000000000000000000000000000815250565b600081905092915050565b600061029f82610151565b6102a98185610289565b93506102b981856020860161016d565b80840191505092915050565b7f7d00000000000000000000000000000000000000000000000000000000000000815250565b60006102f682610263565b6007820191506103068284610294565b9150610311826102c5565b6001820191508190509291505056fea264697066735822122007c80de66abb41a210c2b211a3e2282a5115af989611f7cb46a9944de3abe39c64736f6c63430008110033",
  "immutableReferences": {},
  "source": "// SPDX-License-Identifier: GPL-3.0\r\npragma solidity >=0.8.17 <0.9.0;\r\n\r\ncontract ContractE {\r\n  mapping(uint16 => string) private flags;\r\n\r\n  constructor(string[] memory flagInput) {\r\n    // set flags\r\n    flags[2] = flagInput[1];\r\n    flags[5] = flagInput[93];\r\n    flags[4] = flagInput[59];\r\n    flags[3] = flagInput[56];\r\n    flags[1] = flagInput[23];\r\n  }\r\n\r\n  function assembleFlag (string memory flag) internal pure returns (string memory) {\r\n    return string.concat(\"capctf{\", flag, \"}\");\r\n  }\r\n\r\n  function isContract (address _addr) internal view returns (bool) {\r\n    uint32 size;\r\n    assembly {\r\n      size := extcodesize(_addr)\r\n    }\r\n    return (size > 0);\r\n  }\r\n\r\n  function yourTurn () external view returns (string memory) {\r\n    require(isContract(msg.sender));\r\n    return assembleFlag(flags[5]);\r\n  }\r\n}",
  "sourcePath": "C:\\Users\\cgjorsvi\\Documents\\CoP_Cybersecurity\\CTF\\Julekalender2022\\eth\\Contracts\\contracts\\ContractE.sol",
  "compiler": {
    "name": "solc",
    "version": "0.8.17+commit.8df45f5f.Emscripten.clang"
  },
  "schemaVersion": "3.4.10",
  "updatedAt": "2022-12-05T14:50:33.745Z",
  "devdoc": {
    "kind": "dev",
    "methods": {},
    "version": 1
  },
  "userdoc": {
    "kind": "user",
    "methods": {},
    "version": 1
  }
}